:020000040802F0
:100000000000032015140208795602087D560208E4
:10001000995602089D560208A156020800000000E9
:10002000000000000000000000000000A5560208CB
:10003000A956020800000000AD5602085914020833
:1000400059140208591402085914020859140208D4
:1000500059140208591402085914020859140208C4
:100060005546020859140208591402085914020886
:1000700059140208591402089D5B02085914020819
:10008000595D02085914020859140208591402084B
:100090005914020859140208591402085914020884
:1000A0005914020859140208591402085914020874
:1000B0001947020859140208591402085914020871
:1000C0005914020859140208591402085914020854
:1000D0005914020859140208591402085914020844
:1000E0005914020859140208591402085914020834
:1000F0005914020859140208591402085914020824
:10010000591402089D57030859140208591402088B
:100110005914020859140208591402085914020803
:10012000E5630208591402085914020851580308DB
:1001300059140208591402085914020859140208E3
:1001400059140208591402085914020859140208D3
:1001500059140208591402085914020859140208C3
:1001600059140208591402085914020859140208B3
:1001700059140208591402085914020859140208A3
:100180005914020859140208591402085914020893
:100190005914020859140208591402085914020883
:1001A00059140208591402085914020800000000EA
:1001B000000000000000000000000000000000003F
:1001C0005072040800000020F00F0020F00F002003
:1001D000C84302204FEA4102B2F1E04324BFB3F525
:1001E000001CDCF1FE5C0DD901F0004C4FEAC002AE
:1001F0004CEA5070B2F1004F40EB830008BF20F092
:100200000100704711F0804F21D113F13872BCBF4B
:1002100001F00040704741F480114FEA5252C2F1A0
:100220001802C2F1200C10FA0CF320FA02F018BFE9
:1002300040F001004FEAC1234FEAD32303FA0CFC3C
:1002400040EA0C0023FA02F34FEA4303CCE77FEACB
:10025000625307D150EA01331EBF4FF0FE4040F415
:100260004000704701F0004040F0FE4040F40000C4
:10027000704700BF844641EA000313F003036DD1C9
:10028000403A41D351F8043B40F8043B51F8043B59
:1002900040F8043B51F8043B40F8043B51F8043B60
:1002A00040F8043B51F8043B40F8043B51F8043B50
:1002B00040F8043B51F8043B40F8043B51F8043B40
:1002C00040F8043B51F8043B40F8043B51F8043B30
:1002D00040F8043B51F8043B40F8043B51F8043B20
:1002E00040F8043B51F8043B40F8043B51F8043B10
:1002F00040F8043B51F8043B40F8043B51F8043B00
:1003000040F8043B403ABDD2303211D351F8043B9F
:1003100040F8043B51F8043B40F8043B51F8043BDF
:1003200040F8043B51F8043B40F8043B103AEDD24E
:100330000C3205D351F8043B40F8043B043AF9D29F
:10034000043208D0D2071CBF11F8013B00F8013B72
:1003500001D30B8803806046704700BF082A13D37F
:100360008B078DD010F003038AD0C3F10403D21A97
:10037000DB071CBF11F8013B00F8013B80D331F8CB
:10038000023B20F8023B7BE7043AD9D3013A11F84B
:10039000013B00F8013BF9D20B7803704B784370B6
:1003A0008B788370604670470000000000000000FA
:1003B00001F0FF01102A2BDB10F0070F08D010F816
:1003C000013B013A8B422DD010F0070F42B3F6D11A
:1003D000F0B441EA012141EA014122F007047FF033
:1003E00000070023F0E80256083C85EA010586EA8A
:1003F000010685FA47F5A3FA87F586FA47F6A5FAC6
:1004000087F68EB9EED1F0BC01F0FF0102F00702D1
:1004100032B110F8013B013A83EA010313B1F8D17C
:100420000020704701387047002D06BF354603385D
:10043000073815F0010F07D1013015F4807F02BF96
:10044000013015F4C03F0130F0BC0138704700BFE7
:10045000000000000000000000000000000000009C
:10046000A2EB0300704700BF02780B78012A28BF77
:100470009A42F5D16DE9044540EA0104CDE90267ED
:100480006FF0000C4FEA447212B380EA010414F0DA
:10049000070F6AD100F0070420F0070004F00305FD
:1004A00021F007014FEAC505F0E8042314F0040F1A
:1004B000F1E804670CFA05F462EA040266EA04064D
:1004C0000AD063EA0403624667EA0407664603E06B
:1004D000F0E80423F1E8046782FA4CF582EA0604A6
:1004E000A4FA8CF46CBB83FA4CF583EA0705A5FAF1
:1004F0008CF595B950E9022351E9026782FA4CF56F
:1005000082EA0604A4FA8CF483FA4CF583EA070520
:10051000A5FA8CF52543DBD09CB92DBAB5FA85F444
:1005200024F0070427FA04F1DDE9026723FA04F353
:1005300003F0FF0001F0FF01FDE80445A0EB01001E
:10054000704724BAB4FA84F424F0070426FA04F1BC
:10055000DDE9026722FA04F202F0FF0001F0FF0178
:10056000FDE80445A0EB0100704714F0030F3CD1F7
:1005700010F0030428D150F8082B51F8083B82FAF8
:100580004CF582EA0305A5FA8CF55DB950F8042C08
:1005900051F8043C82FA4CF582EA0305A5FA8CF581
:1005A000002DE8D02DBAB5FA85F424F0070423FA1B
:1005B00004F122FA04F202F0FF0001F0FF01FDE86D
:1005C0000445A0EB010070474FEAC40420F003008B
:1005D00050F8082B21F0030151F8083B0CFA04F401
:1005E00062EA040263EA0403C9E710F003041AD0C4
:1005F000A1EB040120F00300E40750F8042B06D01F
:100600000FD28B785FFAA2F4E41A06D12BB1CB7823
:100610005FFAB2F4E41A00D11BB920465DF8104B22
:10062000704701F1040150F8042BCC0721F00301BD
:1006300051F8043B48D824D222F07F4482FA4CF58A
:1006400094EA1325A5FA8CF50AD165B951F8043B53
:1006500084EA0204B4EB036F0ED150F8042BEBE7ED
:100660004FEA132355E035F07F454DD10878FDE87A
:100670000445C0F1000070474FEA126203F0FF0327
:1006800047E002EA1C4482FA4CF594EA1345A5FAC5
:100690008CF50AD165B951F8043B84EA0204B4EB45
:1006A000034F0CD150F8042BEBE74FEA134330E033
:1006B00015EA1C4528D10B884FEA124229E04FEA7F
:1006C000124203EA1C4324E002F0FF0482FA4CF5D4
:1006D00094EA1365A5FA8CF50AD165B951F8043B83
:1006E00084EA0204B4EB032F09D150F8042BEBE7A2
:1006F0004FEA13630DE015F0FF0F05D10B684FEAC9
:10070000122223F07F4304E04FF00000FDE804458F
:10071000704712BA1BBA82FA4CF482EA0304A4FAB4
:100720008CF5B5FA85F402FA04F203FA04F34FEA01
:100730001260FDE80445A0EB1360704781F00041B2
:1007400002E000BF83F0004330B54FEA41044FEAB6
:10075000430594EA050F08BF90EA020F1FBF54EA51
:10076000000C55EA020C7FEA645C7FEA655C00F0ED
:10077000E2804FEA5454D4EB5555B8BF6D420CDDBE
:100780002C4480EA020281EA030382EA000083EA41
:10079000010180EA020281EA0303362D88BF30BDE1
:1007A00011F0004F4FEA01314FF4801C4CEA113137
:1007B00002D0404261EB410113F0004F4FEA033396
:1007C0004CEA133302D0524263EB430394EA050F21
:1007D00000F0A780A4F10104D5F1200E0DDB02FA90
:1007E0000EFC22FA05F2801841F1000103FA0EF224
:1007F000801843FA05F359410EE0A5F120050EF1EA
:10080000200E012A03FA0EFC28BF4CF0020C43FA1A
:1008100005F3C01851EBE37101F0004507D54FF027
:10082000000EDCF1000C7EEB00006EEB0101B1F577
:10083000801F1BD3B1F5001F0CD349085FEA3000BD
:100840004FEA3C0C04F101044FEA445212F5800FC8
:1008500080F09A80BCF1004F08BF5FEA500C50F165
:10086000000041EB045141EA050130BD5FEA4C0C48
:10087000404141EB010111F4801FA4F10104E9D1D1
:1008800091F0000F04BF01460020B1FA81F308BFC8
:100890002033A3F10B03B3F120020CDA0C3208DD94
:1008A00002F1140CC2F10C0201FA0CF021FA02F16F
:1008B0000CE002F11402D8BFC2F1200C01FA02F1DF
:1008C00020FA0CFCDCBF41EA0C019040E41AA2BF04
:1008D00001EB0451294330BD6FEA04041F3C1CDACC
:1008E0000C340EDC04F11404C4F1200220FA04F0EC
:1008F00001FA02F340EA030021FA04F345EA030196
:1009000030BDC4F10C04C4F1200220FA02F001FA57
:1009100004F340EA0300294630BD21FA04F02946D9
:1009200030BD94F0000F83F4801306BF81F4801172
:100930000134013D4EE77FEA645C18BF7FEA655CE5
:1009400029D094EA050F08BF90EA020F05D054EAB7
:10095000000C04BF1946104630BD91EA030F1EBFBC
:100960000021002030BD5FEA545C05D140004941C0
:1009700028BF41F0004130BD14F580043CBF01F5B3
:10098000801130BD01F0004545F0FE4141F4700199
:100990004FF0000030BD7FEA645C1ABF1946104674
:1009A0007FEA655C1CBF0B46024650EA013406BF75
:1009B00052EA033591EA030F41F4002130BD00BF34
:1009C00090F0000F04BF0021704730B54FF48064F1
:1009D00004F132044FF000054FF0000150E700BF72
:1009E00090F0000F04BF0021704730B54FF48064D1
:1009F00004F1320410F0004548BF40424FF00001BE
:100A00003EE700BF42004FEAE2014FEA31014FEA00
:100A100002701FBF12F07F4393F07F4F81F060514F
:100A2000704732F07F4208BF704793F07F4F04BF9A
:100A300041F40021704730B54FF4607401F0004577
:100A400021F000411CE700BF50EA010208BF7047D7
:100A500030B54FF000050AE050EA010208BF7047C8
:100A600030B511F0004502D5404261EB41014FF431
:100A7000806404F132045FEA915C3FF4D8AE4FF039
:100A800003025FEADC0C18BF03325FEADC0C18BF1C
:100A9000033202EBDC02C2F1200300FA03FC20FA6D
:100AA00002F001FA03FE40EA0E0021FA02F11444BA
:100AB000BDE600BF70B54FF0FF0C4CF4E06C1CEAD3
:100AC00011541DBF1CEA135594EA0C0F95EA0C0F44
:100AD00000F0DEF82C4481EA030621EA4C5123EAB7
:100AE0004C5350EA013518BF52EA033541F48011E6
:100AF00043F4801338D0A0FB02CE4FF00005E1FB99
:100B000002E506F00042E0FB03E54FF00006E1FBE2
:100B100003569CF0000F18BF4EF0010EA4F1FF0425
:100B2000B6F5007F64F5407404D25FEA4E0E6D4165
:100B300046EB060642EAC62141EA55514FEAC52076
:100B400040EA5E504FEACE2EB4F1FD0C88BFBCF5F2
:100B5000E06F1ED8BEF1004F08BF5FEA500E50F1A3
:100B6000000041EB045170BD06F0004646EA010169
:100B700040EA020081EA0301B4EB5C04C2BFD4EB9B
:100B80000C0541EA045170BD41F480114FF0000E94
:100B9000013C00F3AB8014F1360FDEBF002001F002
:100BA000004170BDC4F10004203C35DA0C341BDC7C
:100BB00004F11404C4F1200500FA05F320FA04F04E
:100BC00001FA05F240EA020001F0004221F0004182
:100BD00010EBD37021FA04F642EB06015EEA430EF5
:100BE00008BF20EAD37070BDC4F10C04C4F1200525
:100BF00000FA04F320FA05F001FA04F240EA0200D8
:100C000001F0004110EBD37041F100015EEA430EA8
:100C100008BF20EAD37070BDC4F1200500FA05F2C8
:100C20004EEA020E20FA04F301FA05F243EA020347
:100C300021FA04F001F0004121FA04F220EA020056
:100C400000EBD3705EEA430E08BF20EAD37070BD9C
:100C500094F0000F0FD101F00046400041EB01017C
:100C600011F4801F08BF013CF7D041EA060195F05E
:100C7000000F18BF704703F00046520043EB030318
:100C800013F4801F08BF013DF7D043EA0603704705
:100C900094EA0C0F0CEA135518BF95EA0C0F0CD010
:100CA00050EA410618BF52EA4306D1D181EA030156
:100CB00001F000414FF0000070BD50EA410606BF50
:100CC0001046194652EA430619D094EA0C0F02D195
:100CD00050EA013613D195EA0C0F05D152EA0336DA
:100CE0001CBF104619460AD181EA030101F00041F8
:100CF00041F0FE4141F470014FF0000070BD41F041
:100D0000FE4141F4780170BD70B54FF0FF0C4CF41A
:100D1000E06C1CEA11541DBF1CEA135594EA0C0F39
:100D200095EA0C0F00F0A7F8A4EB050481EA030E86
:100D300052EA03354FEA013100F088804FEA03336D
:100D40004FF0805545EA131343EA12634FEA02223B
:100D500045EA111545EA10654FEA00260EF00041FC
:100D60009D4208BF964244F1FD0404F5407402D24E
:100D70005B084FEA3202B61A65EB03055B084FEADF
:100D800032024FF480104FF4002CB6EB020E75EBDC
:100D9000030E22BFB61A754640EA0C005B084FEA04
:100DA0003202B6EB020E75EB030E22BFB61A754681
:100DB00040EA5C005B084FEA3202B6EB020E75EBCC
:100DC000030E22BFB61A754640EA9C005B084FEA44
:100DD0003202B6EB020E75EB030E22BFB61A754651
:100DE00040EADC0055EA060E18D04FEA051545EA40
:100DF00016754FEA06164FEAC30343EA52734FEAE9
:100E0000C2025FEA1C1CC0D111F4801F0BD141EA61
:100E100000014FF000004FF0004CB6E711F4801FC6
:100E200004BF01430020B4F1FD0C88BFBCF5E06FA6
:100E30003FF6AFAEB5EB030C04BFB6EB020C5FEAB6
:100E4000500C50F1000041EB045170BD0EF0004E0B
:100E50004EEA113114EB5C04C2BFD4EB0C0541EA3D
:100E6000045170BD41F480114FF0000E013C90E63A
:100E700045EA060E8DE60CEA135594EA0C0F08BFFE
:100E800095EA0C0F3FF43BAF94EA0C0F0AD150EAFD
:100E900001347FF434AF95EA0C0F7FF425AF104690
:100EA00019462CE795EA0C0F06D152EA03353FF4B8
:100EB000FDAE1046194622E750EA410618BF52EA35
:100EC00043067FF4C5AE50EA41047FF40DAF52EA09
:100ED00043057FF4EBAE12E74FF0FF3C06E000BFA6
:100EE0004FF0010C02E000BF4FF0010C4DF804CDB3
:100EF0004FEA410C7FEA6C5C4FEA430C18BF7FEA73
:100F00006C5C1BD001B050EA410C0CBF52EA430CA0
:100F100091EA030F02BF90EA020F0020704710F120
:100F2000000F91EA030F58BF994208BF90422CBFAF
:100F3000D8176FEAE37040F0010070474FEA410CA8
:100F40007FEA6C5C02D150EA013C07D14FEA430CC6
:100F50007FEA6C5CD6D152EA033CD3D05DF8040B37
:100F6000704700BF8446104662468C461946634669
:100F700000E000BF01B5FFF7B7FF002848BF10F140
:100F8000000F01BD4DF808EDFFF7F4FF0CBF012085
:100F900000205DF808FB00BF4DF808EDFFF7EAFF01
:100FA00034BF012000205DF808FB00BF4DF808EDBC
:100FB000FFF7E0FF94BF012000205DF808FB00BFB1
:100FC0004DF808EDFFF7CEFF94BF012000205DF83B
:100FD00008FB00BF4DF808EDFFF7C4FF34BF012048
:100FE00000205DF808FB00BF4FEA410C7FEA6C5C13
:100FF00002D150EA013C0AD14FEA430C7FEA6C5C13
:1010000002D152EA033C02D14FF0000070474FF08A
:10101000010070474FEA410212F5001215D211D5B6
:101020006FF47873B3EB625212D94FEAC12343F0E5
:10103000004343EA505311F0004F23FA02F018BF67
:10104000404270474FF00000704750EA013005D130
:1010500011F0004008BF6FF0004070474FF00000F3
:10106000704700BF4A0011D212F5001211D20DD5FF
:101070006FF47873B3EB62520ED44FEAC12343F09E
:10108000004343EA505323FA02F070474FF0000048
:10109000704750EA013002D14FF0FF3070474FF0F7
:1010A0000000704753B94AB9002908BF00281CBF87
:1010B0004FF0FF314FF0FF3000F0AAB9ADF1080C4E
:1010C0006DE904CE00F03CF8DDF804E0DDE9022330
:1010D00004B0704738B50022002304460D46FFF7E0
:1010E0005BFF28B920462946BDE8384000F00AB821
:1010F000204605F1004100F005F8404261EB410156
:1011000038BD00BFD0B500220B4B06460F46FFF797
:10111000D1FCFFF7A7FF0446FFF752FC0022074B64
:10112000FFF7C8FC02460B4630463946FFF70AFB7C
:10113000FFF798FF2146D0BD0000F03D0000F041D0
:101140002DE9F047089E04468846002B40F0858034
:101150008A42154648D9B2FA82F24AB1C2F1200752
:1011600001FA02F320FA07F7954047EA0308944092
:101170004FEA154E230CB8FBFEF71FFA85FC0EFB59
:10118000178843EA084307FB0CF1994209D9EB1889
:1011900007F1FF3080F0E380994240F2E080023FA7
:1011A0002B445B1AA4B2B3FBFEF00EFB103344EAEF
:1011B000034400FB0CFCA44509D92C1900F1FF33B2
:1011C00080F0CB80A44540F2C88002382C4440EA2D
:1011D0000740A4EB0C0400271EB1D4400023C6E94D
:1011E00000433946BDE8F087002A53D0B2FA82F2B4
:1011F000002A40F0B680491B4FEA154E1FFA85F8C9
:101200000127B1FBFEFC230C0EFB1C1143EA01433A
:1012100008FB0CF1994207D9EB180CF1FF3002D210
:10122000994200F2EC808446591AA3B2B1FBFEF059
:101230000EFB101443EA044408FB00F8A04507D94C
:101240002C1900F1FF3302D2A04500F2DC801846D1
:10125000A4EB080440EA0C40BEE78B4208D9002EFC
:1012600078D00027C6E9000138463946BDE8F08746
:10127000B3FA83F77FB98B4202D3824200F2BD807A
:10128000841A61EB030301209846002EA9D0C6E919
:101290000048A6E7FFDEC7F12005BB4022FA05FCA7
:1012A0004CEA030C01FA07F420FA05F821FA05F3D9
:1012B0004FEA1C4E48EA0404B3FBFEF9210C0EFB76
:1012C00019331FFA8CF841EA034309FB08FA9A45DF
:1012D00002FA07F200FA07F10BD91CEB030309F13C
:1012E000FF3080F088809A4540F28580A9F102099C
:1012F0006344A3EB0A03A4B2B3FBFEF00EFB10336E
:1013000044EA034400FB08F8A04508D91CEB040498
:1013100000F1FF336BD2A04569D90238644440EA3A
:101320000940A4EB0804A0FB02894C45C6464B4685
:1013300054D351D0002E69D0B1EB0E0264EB0304FC
:1013400004FA05F522FA07F3FC401D43C6E90054F0
:10135000002746E73746304643E7184637E7074653
:101360001FE7C2F1200320FA03F7954001FA02F0CB
:1013700021FA03F34FEA154E3843010CB3FBFEF795
:101380001FFA85F80EFB173341EA034107FB08F308
:101390008B4204FA02F407D9691807F1FF3C28D2FE
:1013A0008B4226D9023F2944CB1A81B2B3FBFEF00F
:1013B0000EFB103341EA034100FB08F38B4207D9CF
:1013C000691800F1FF3C10D28B420ED90238294433
:1013D000C91A40EA074714E74145ABD2B8EB020E01
:1013E00069EB0C0201381346A4E76046F0E71846A3
:1013F00095E76746D8E781467BE7384645E7ACF195
:10140000020C2B4410E702382C4421E73746E8E66B
:10141000704700BF002103E00A4B5B584350043182
:1014200009480A4B42189A42F6D3094A02E00023BF
:1014300042F8043B074B9A42F9D300F00FF801F051
:1014400093FB70475072040800000020F00F00204A
:10145000F00F0020C8430220FEE700003F49404B48
:10146000D1F888203F4842F47002C1F888201A68F9
:10147000002142F001021A6099601A6822F0847C0F
:101480002CF480321A605860186882B020F48022F0
:101490001A60D96000910191196841F48030186098
:1014A00003E00099B1F5A04F09D01A6802F40031A9
:1014B0000191009801300090019A002AF1D0284B48
:1014C000186810F4003218BF012201920199012915
:1014D00014D023482449836823F400028260C0F8B2
:1014E0008410016841F08063036002681201FCD53A
:1014F0001A484FF00061816002B07047184B1B49D9
:101500001A6C1B4842F080521A640A6842F4404246
:101510000A60996899609A6842F4004199609A68F3
:1015200042F4A05199605860186840F080721A60C7
:1015300019688901FCD50F4A094940F2056010601D
:101540009A6822F0030098609A6842F0020098605E
:101550008B6803F00C02082AFAD1BAE700ED00E02C
:1015600000380240103000248040003000700040FD
:10157000195A4008003C0240164A936803F00C00D8
:1015800004280DD008280DD0134B124913488A683F
:101590001349C2F3031C10F80C00C3400B607047E2
:1015A000104BF2E75368516852685B0201F03F004C
:1015B0004CBF0C4B084BB3FBF0F1C2F38810054A4B
:1015C000536801FB00F1C3F3014001304200B1FB5D
:1015D000F2F3DAE7003802400024F40000000020B3
:1015E0001000002040787D012DE9F04F99B0CDE941
:1015F00000120C229B4606A90DEB0203054610F0D3
:10160000FDFE064618B98F4B069A9A4203D0304623
:1016100019B0BDE8F08FA3F57000089CA0F2FB7133
:101620008C42F4D1DFF850A2B04637460C24B146C4
:101630002146284611F0D8FA002840F0A98003ABD3
:10164000082204A9284610F0D9FE002840F0A08006
:10165000049B53452AD07C4A934217D07B4883424F
:1016600067D0059908310C44E30700D50134EA68D6
:10167000A242CCD9B9F1000FDAD027B1B8F1000FEE
:10168000C5D1B946D4E74FF00109D1E7059F239AA8
:1016900024991760083704F10800259B08603C4432
:1016A000E2071C6043D501340127E0E721462846C4
:1016B00011F09AFA00286BD103AB16220CA9284628
:1016C00010F09CFE002863D1BDF9380000990F9BF3
:1016D000BDF93A200B601128CBF800205DD00BDC5F
:1016E000022861D0032866D001287AD04FF0FF3657
:1016F000304619B0BDE8F08FB0F5817F62D040F27E
:101700000313984265D040F201139842EED1019A3A
:101710004F4908201060229A11600D99EA6808313B
:101720000C449442A9D3304619B0BDE8F08F01278C
:101730009DE72146284611F057FA48BB03AB0C221F
:1017400009A9284610F05AFE10BB04F10C0818F045
:10175000010F18BF04F10D080B9C002C62DD002462
:101760000CE0284610F04AFE42F6E061139805F0BE
:1017700087FA01340B9B24B29C4253DA4146284637
:1017800011F032FA182203AB12A990440028E8D0D5
:101790000646304619B0BDE8F08F019B229A2D49CC
:1017A000042018601160B8E7019A22992A4B04209E
:1017B00010600B60B1E7019A2299284B202010603D
:1017C0000B60AAE7019B229A254908201860116046
:1017D000A3E7019A234904201060229A96461160DB
:1017E0009BE704F11601284611F0FEF90028CFD13D
:1017F00003AB02220DF10A01284610F0FFFD00287C
:10180000C6D1BDF90A00019B082818600ED0102827
:1018100010D0182812D020287FF47FAF229A1249C6
:1018200011607AE744464FF0010820E7229B0F48F9
:10183000186072E7229A0E4911606EE7229B0D48EC
:1018400018606AE7524946466461746163756520B1
:101850003830756D64616D696461736D32336C66C7
:1018600038306C6164616269323369733830737522
:101870003631697334326973666D74202DE9F04F27
:1018800005469BB00F46002111F0AEF905AB0C22C6
:10189000284608A910F0B2FDA04B089A9A420446C7
:1018A00006D1A3F570000A9EA0F2FB718E4203D010
:1018B00020461BB0BDE8F08FEE682846314611F097
:1018C00093F904460028F3D1A6F1080301462846FF
:1018D000099311F089F904460028E9D104AB0C22E0
:1018E00008A9284610F0D0FE04460028E0D107F0F1
:1018F0000104DFF83C92DFF83CB200948246804657
:101900000C263146284611F06FF904460028CFD145
:1019100006A905AB0822284610F070FD04460028F1
:10192000C6D1069A4A4511D05A4541D00798083089
:101930000644F30748BF0136B8F1000FE1D0BAF111
:10194000000F40F0E9804FF00108DAE7079974488A
:10195000744ACDF83890CDE90F104BF68031202431
:1019600011914FF0080831462846ADF80E4012920A
:10197000ADF84C8011F038F90446002898D104AB3A
:1019800016220EA9284610F07FFE044600288FD1AB
:1019900006F11601284611F027F904AB02220DF1D9
:1019A0000E01284610F070FE079B08331E44C6E760
:1019B00031462846079711F017F9044600287FF4AE
:1019C00077AF06A904AB0822284610F05DFE044656
:1019D00000287FF46DAF544B009A06F108013E4495
:1019E000196006F1080A42B95646B8F1000F36D11F
:1019F0004FF000084FF0010A83E7514628468DF862
:101A00000D4011F0F1F804AB01220DF10D01284653
:101A100010F03AFEEC6801942146284611F0E4F8F3
:101A200009360446B24600287FF442AF01982146A9
:101A3000A0F108032846099311F0D6F804460028BF
:101A40007FF436AF04AB0C2208A9284610F01CFE28
:101A5000044600287FF42CAFB8F1000FC8D0DFF89F
:101A6000D890D9F80060002E4ADD06EB4607FA0050
:101A700004322E4C0B94514628460D960C9211F0D0
:101A8000B3F8044600287FF413AF04AB0C220BA973
:101A9000284610F0F9FD044600287FF409AF049EA3
:101AA000D9F8000056440028B24629DDDFF88C80C2
:101AB000DFF880B0274615E058F804CF1497CDE939
:101AC00016B41894CDF854C0CDF864C010F0DCFD05
:101AD0000137824690B90499D9F800300E449F42EC
:101AE000B2460DDA3146284611F07EF8044604ABC2
:101AF000182214A92846A246002CDDD05446D7E669
:101B00005146284611F070F80446284611F0BEFBF5
:101B1000284610F0E5FDCBE6B246A0E7524946461E
:101B20000300020000DC05006410002063756520DE
:101B3000666D7420646174618C2002205C21022037
:101B400030B58DB01C4B1D4D1D4C0393102222232C
:101B50000021CDE9055407920493054611F044F89D
:101B600008B10DB030BD049A6B46083203A928466F
:101B700010F08AFD0028F4D10C21284611F034F829
:101B80000028EED1079A6B46083206A9284610F0C5
:101B90007BFD0028E5D107990A4C029014312846B4
:101BA000019411F021F80028DBD16B462846082269
:101BB00001A910F069FDD4E7524946465741564500
:101BC000666D742064617461024B00BF013BFCD1FF
:101BD000704700BF40420F0010B40C7874B1431E30
:101BE0005C7011F8014F9A1C121A0133002CF7D1C6
:101BF0000244002111705DF8044B70470246002139
:101C000011705DF8044B7047037833B1014611F849
:101C1000012F002AFBD1081A70471846704700BFF1
:101C200070B40478DCB1421C0024157813460134EA
:101C30000132002DF9D10A786AB104F1FF3CC1F1FB
:101C4000010684440CF8012F731811F8012F002AA3
:101C5000F8D1234403440021197070BC7047034637
:101C6000E9E700BFF0B40A2982B000F10105B5EE42
:101C7000C00A39DCF1EE10FA00F1108104460029A7
:101C800080F23E81F7EE007AB4EEE70AF1EE10FA48
:101C900000F14281F2EE040AB4EEE00AF1EE10FA2D
:101CA00000F136819FEDA61AB4EEC10AF1EE10FAEA
:101CB00000F13681DFEDA31AB4EEE10AF1EE10FA7D
:101CC00000F132819FEDA02AB4EEC20AF1EE10FAC3
:101CD00000F12E81DFED9D2AB4EEE20AF1EE10FA5A
:101CE00000F12A81002109E0F1EE10FA00F1DF8015
:101CF00004469FED973A0A2130EE030AFDEEC03A02
:101D000013EE902A002A40F0DB8030232370002954
:101D100000F0BF80B8EEE34AB2EE047A30EE440A37
:101D20002E2460EE074A0129BCEEE45A2C708DED9A
:101D3000015A9DF8047005EE907AB8EEE56A07F155
:101D4000300774EEC66A6F7000F0A18066EE870AF5
:101D50000229FCEEE07ACDED017A9DF8042001EE37
:101D6000102AF8EEC11A02F1300230EEE12AAA7010
:101D700000F08D8062EE072A0329BCEEE23A8DED79
:101D8000013A9DF8046003EE906AB8EEE34A06F16A
:101D9000300632EEC40AEE7079D060EE074A0429AC
:101DA000BCEEE45A8DED015A9DF8043005EE903AF0
:101DB000B8EEE56A03F1300374EEC66A2B7166D0A3
:101DC00066EE870A0529FCEEE07ACDED017A9DF8F2
:101DD000044001EE104AF8EEC11A04F1300430EE6E
:101DE000E12A6C7153D062EE072A0629BCEEE23A72
:101DF0008DED013A9DF8047003EE907AB8EEE34A57
:101E000007F1300732EEC40AAF7140D060EE074AE6
:101E10000729BCEEE45A8DED015A9DF8042005EE29
:101E2000902AB8EEE56A02F1300274EEC66AEA71F1
:101E30002DD066EE870A0829FCEEE07ACDED017A16
:101E40009DF8046001EE106AF8EEC11A06F1300642
:101E500030EEE12A2E721AD062EE072A0929BCEE72
:101E6000E23A8DED013A9DF8043003EE903AB8EE77
:101E7000E34A03F1300332EEC40A6B7207D060EE1E
:101E8000074ABCEEE45A15EE104A3034AC72013108
:101E90000D440021297002B0F0BC704703462D228A
:101EA00003F8022B2C46B1EE400A1D46E7E6014638
:101EB0002D2301F8023B2C46B1EE400A0D4618E7EF
:101EC000244F13EE903A254687FB032CDE17C6EB12
:101ED000AC0202EB820CA3EB4C03303305F8013B60
:101EE0001346002AF0D1A5427FF611AF2F4617F80E
:101EF000012D26783E7004F8012BA742F7D806E79B
:101F00003FF4FCAE144E06EB810797ED003AF3E682
:101F10009FED123A0521EFE69FED113A0621EBE61F
:101F20009FED103A0421E7E69FED0F3A0321E3E627
:101F30009FED0E3A0221DFE69FED0D3A0121DBE62F
:101F40000000C84200007A4400401C460050C347CD
:101F5000FFE65B2E6766666610EB0308ACC5A73626
:101F6000BD37063517B751386F12033A0AD7A33B6E
:101F7000CDCC4C3DF0B48AB000236C46364E0360A5
:101F800002934360039383600493C36005930361EA
:101F900006934361079383610893C36109932546C0
:101FA0002E2205F8012B16F8012F0133002AF8D153
:101FB0000AAF3B44294E03F8282C431E6D225A7069
:101FC00016F8012F9D1C2F1A0133002AF7D1C25594
:101FD000CEB20929D4BF303657360578F3B28DF822
:101FE0000830002D34D0411C00250F780A460135F9
:101FF0000131002FF9D163B1471939460DF1080CB1
:1020000001F8013B1CF8013FCA1B002BF8D12A4400
:102010000244002616700578E5B13546471C39782C
:102020003B46013501370029F9D19DF8002052B116
:102030004619374607F8012B14F8012FBB1B002A5D
:10204000F8D12B440344002018700AB0F0BC70474C
:102050000246D0E70346E8E708E3030810E3030875
:10206000F0B48AB000236C46364E0360029343609E
:10207000039383600493C3600593036106934361F4
:10208000079383610893C361099325462E2205F8BF
:10209000012B16F8012F0133002AF8D10AAF3B4477
:1020A000294E03F8282C431E73225A7016F8012F6C
:1020B0009D1C2F1A0133002AF7D1C255CEB209292F
:1020C000D4BF303657360578F3B28DF80830002D7E
:1020D00034D0411C00250F780A4601350131002F0C
:1020E000F9D163B1471939460DF1080C01F8013BEC
:1020F0001CF8013FCA1B002BF8D12A4402440026D9
:1021000016700578E5B13546471C39783B460135F0
:1021100001370029F9D19DF8002052B14619374600
:1021200007F8012B14F8012FBB1B002AF8D12B4410
:102130000344002018700AB0F0BC70470246D0E794
:102140000346E8E714E303081CE3030870B5144EE4
:102150003368012B90B01EDD01252C4621466846D0
:10216000FFF708FF0021684610F0DEFF50B9A542D6
:10217000294608A805D0FFF7FDFE08A9684611F01A
:1021800063FB013530680134A042E7DC0549013DBD
:102190000D6010B070BD034900250D6010B070BD1A
:1021A0008C120020A0120020F0B54E4E3368012B97
:1021B00093B040F38680012500244B4F02940A948B
:1021C00003940B9404940C9405940D9406940E942B
:1021D00007940F94089410940994119468466946E2
:1021E0002E23002201F8013B17F8013F0132002B9A
:1021F000F8D10DF1480C62443C4F02F8483C0DF117
:10220000080E6D220EF8012B17F8012F0133002A5A
:10221000F8D112A90B44092D03F8402C54DC05F128
:10222000300C9DF808105FFA8CF38DF8283059B106
:102230000DF10907002297F800E039460132013715
:10224000BEF1000FF7D183B1571E0DF1080C6744A2
:102250000DF1280E002107F8013F1EF8013F013162
:10226000002BF8D10A4402AFB9180C709DF8082071
:10227000002A34D00DF1090100220F780B460132FB
:102280000131002FF9D19DF8001079B102F1FF3C26
:102290000DF1080EF44400230CF8011F10F8011F83
:1022A00001330029F8D1134402A80344002102A8F5
:1022B0001C7010F039FF20B932680135AA423FF78F
:1022C0007CAF284613B0F0BD05F157039DF80870A8
:1022D000DBB28DF82830002FAAD102A9B3E702ABF8
:1022E000D1E700BF8C12002008E3030810E30308C5
:1022F00070B598B00146174E6846FFF73BFE68463A
:1023000011F06CF83368012B1EDD012425462946A7
:1023100008A8FFF72FFE002108A810F005FF50B90C
:10232000AC42214610A805D0FFF724FE10A908A84A
:1023300011F08AFA0134306801358542E7DB06493D
:10234000013C0C6018B070BD034900240C6018B04B
:1023500070BD00BF8C120020A012002030B5324B9F
:10236000324D334A334C8DB099420394CDE9055236
:10237000044625D019D803F1734505F54032FE32E5
:1023800091421DD002F14F6000F54F2C0CF6046E07
:10239000714515D00E252222002120460795049272
:1023A00010F022FCB0B10DB030BD2348814207D0FF
:1023B00000F1027C0CF5FE3E0EF583739942E9D1E3
:1023C00010212223079120460021049310F00CFCD9
:1023D0000028E8D1049A6B46083203A9204610F081
:1023E00053F90028DFD10C21204610F0FDFB002816
:1023F000D9D1079A6B46083206A9204610F044F955
:102400000028D0D107990D4B02901431204601933A
:1024100010F0EAFB0028C6D16B462046082201A92D
:1024200010F032F9BFE700BF3432697357415645A7
:10243000666D742052494646323369736461746133
:102440002DE9F04F05469BB00E460021904610F056
:10245000CBFB05AB0C22284608A90FF0CFFFC84BD9
:10246000089A9A42044606D1A3F570000A9FA0F28A
:10247000FB718F4203D020461BB0BDE8F08FEF68A0
:102480002846394610F0B0FB04460028F3D1A7F1E6
:10249000080301462846099310F0A6FB04460028CD
:1024A000E9D104AB0C2208A9284610F0EDF8044647
:1024B0000028E0D108F00104DFF8E4B20090824681
:1024C00001940C27DFF8DC923946284610F08CFB8B
:1024D0000346002840F06C8105AB06A90822284677
:1024E0000FF08CFF0346002840F06281069A5A459F
:1024F00012D04A4500F08C80079808300744FB074B
:1025000048BF0137BAF1000FDCD0009B002B40F030
:1025100084814FF0010AD5E79A4A0446079896420B
:10252000CDE90EB000F04E8151D9974B9E4200F09C
:102530004E8138D803F17A4303F53F2101F6046058
:10254000864200F0528100F1BE6C0CF58023FE3310
:102550009E4205D110210124ADF80E10ADF8404087
:102560004BF68031894811914FF002094FF0080A6B
:10257000129039462846ADF84290ADF84CA010F0C4
:1025800033FB002840F03B8104AB16220EA92846FD
:1025900010F07AF8002840F03281012C5ED0079CC0
:1025A00008342744B1E77A48864200F0178100F1E9
:1025B000027C0CF5FE3E0EF583794E45D0D14FF0EE
:1025C000080A0124ADF80EA0ADF84040C8E702F1BA
:1025D000794EAEF5E529A9F2326A564500F0EA8057
:1025E0000BD96C4A964200F0058102F530239E42D9
:1025F000B6D11121ADF84010B2E70AF17B4EAEF230
:10260000FA208642ACD14FF48172ADF84020A7E7A2
:1026100039462846CDF81C8010F0E6FA034600281B
:1026200040F0C68004AB06A90822284610F02CF81A
:102630000346002840F0BC805749019A07F108047E
:1026400047440C6007F10804AAB92746BAF1000F05
:1026500041D1012100914FF0000A35E707F1160141
:10266000284610F0C1FA04AB4A460DF10E01284687
:1026700010F00AF893E7214628468DF80D3010F047
:10268000B3FA04AB01220DF10D0128460FF0FCFF57
:10269000EB6800931946284610F0A6FA093703465E
:1026A0003C46002840F0848000981946A0F10802BA
:1026B0002846099210F098FA0346002878D104AB16
:1026C0000C2208A928460FF0DFFF034600286FD12F
:1026D000BAF1000FBDD02146DFF8CCB0DBF80070B6
:1026E000002F40F38F8007EB4706F20004322B4C9B
:1026F0000B9428460D9788460C9210F075FA044604
:1027000000287FF4B8AE04AB0C220BA928460FF0CA
:10271000BBFF044600287FF4AEAE0499DBF800004E
:1027200046460E440028B14631466BDDDFF87C801A
:10273000DFF870A0274614E058F804CF1497CDE9CD
:1027400016A41894CDF854C0CDF864C00FF09CFFC7
:102750000137064688B9DBF80030049A9F4291445D
:102760004FDA4946284610F03FFA044604AB1822D7
:1027700014A928462646002CDED034467BE600BF4E
:10278000524946466461736D3432697300DC05005A
:102790003233697364616269641000206375652077
:1027A000666D7420646174618C2002205C210220BB
:1027B0001C4660E620240320ADF80E40ADF8400032
:1027C0000124CDE64FF0020AADF840A0C8E618217A
:1027D0000124ADF80E10ADF84040C1E620220124DE
:1027E000ADF80E20ADF84040BAE640F20112ADF867
:1027F0004020B5E640F2031CADF840C0B0E6044608
:1028000039E64946284610F0EFF90446284610F00C
:102810003DFD28460FF064FF2DE639465CE700BF1A
:102820002DE9F04F0D4681B0002116461F460446A3
:10283000DDE90A89DDE90CAB10F0D6F910B101B081
:10284000BDE8F08F3B46324629462046CDE90CAB29
:10285000CDE90A8901B0BDE8F04FFEF7C5BE00BF63
:10286000724B186830B409280FD8DFE800F029341B
:10287000404B56606D0576826D496E4C6E4B6F4DC8
:102880000C604FF07E511C6029606D4D296809294C
:1028900014D8DFE811F071007C00880093009E00DE
:1028A000A800B500BE00C1000A00664C00236648BF
:1028B000664D23604FF07E5403602C6030BC70473F
:1028C0005B4D5E495C4B5B4C0C6000224FF07C50D2
:1028D00028601A60D9E7564C5849574B5C4D5D4803
:1028E00025604FF0000C0860C3F800C0CDE75049E8
:1028F000524D514B584A00244FF07E502C600860D6
:102900001A60C2E74A4C4C484C4B544D25604FF07E
:10291000000C0560C3F800C0B7E7454C4749464B7B
:102920004F4D50484A4A256008601A60ADE7404D57
:102930004249414C4C484FF0000C4FF07E53C5F8D3
:1029400000C008602360A0E739483C4D3A4A404B3C
:10295000444C04602B60136097E7354D3748364A86
:102960004FF07E5CC5F800C0C0F800C0C2F800C0DF
:102970008BE72F49002481E7324D3449324B2D4CEF
:102980000C6000224FF07C5028601A6096E72D4CB6
:102990002E492D4B2E4D2F4825604FF0000C08601E
:1029A000C3F800C08AE72749284D274B2A4A00244C
:1029B0004FF07E502C6008601A607FE7214C22485F
:1029C000224B264D25604FF0000C0560C3F800C077
:1029D00074E71C4C1D491C4B214D22481C4A2560A4
:1029E00008601A606AE7174D184C17491E484FF0E7
:1029F000000C4FF07E53C5F800C020600B605DE70F
:102A000010481249104A124B164D05600B601360B6
:102A100054E70C4C074B4AE70A480C4D0A4A4FF062
:102A20007E5101602960116048E700BF3810002026
:102A3000301302209A99993E181000205C10002053
:102A40003C100020341302201C10002060100020D5
:102A50006666663FCDCC4C3F3333333FA4707D3F39
:102A6000CDCCCC3ECDCCCC3D3333B33E00B50121F3
:102A700085B0084609F09AFA01A80AF0AFFC0023D5
:102A800041F2931201A94FF080400292ADF80C3050
:102A90008DF80E3001930AF051FC01214FF0804077
:102AA0000AF0F0FC012211464FF080400BF0FCF8D8
:102AB00005B05DF804FB00BF00B583B0034B019384
:102AC00001A803F057FD03B05DF804FB1C030101EE
:102AD00030B5012187B0102009F044FA01214020CF
:102AE00009F040FA154D01214FF4804009F06AFACF
:102AF000042402A91248CDE9024508F0DBFD4FF499
:102B0000806302A90F48CDE9023508F0D3FD2046C5
:102B100002210AF007FB4FF48052012104A8ADF80E
:102B200014208DF8161004940AF076FA06480190E5
:102B30000DEB040003F01EFD07B030BD00030002E2
:102B400000100240001802400800000108B50122F0
:102B5000034900200FF022FB024B00221A6008BD3F
:102B600074E90308901200202DE9F04F9D489E491A
:102B70009E4B9F4E9F4DA04ADFF83483DFF834C34D
:102B8000DFF834E3DFF83493DFF834A3DFF834B34D
:102B90009A4F00242DED028B04600C601C60984855
:102BA0009849994B04600C601C6098489849994B6F
:102BB00004600C601C6098489849994B04600C6054
:102BC0001C6098489849994B34600126ADF6D41D95
:102BD00004600C602C601E60954D96489649974B9A
:102BE0001460C8F80040CCF80040CEF80040C9F8A6
:102BF0000040CAF80040CBF8004006600E60DFF8E5
:102C0000C8823C601894CDE919441E602C608C4D3C
:102C10008C488D498D4B04602122C8F800202A6819
:102C200004928B4A0C601460049A8A4D8A488B493E
:102C3000DFF898E22C6013440B600460DFF890C268
:102C4000DFF890B2DFF89092854B86488649DFF82E
:102C50008CA2864D864ACEF80040CCF80040CBF8D6
:102C60000040C9F8004004600C60CAF800401C60D5
:102C70002C60136B7F48069043F0400111634020A5
:102C8000314609F06FF94FF4D04240F201330DF2B2
:102C90009C717948CDF89C27CDF8A03708F00AFD43
:102CA000764A774B14604FF080414FF07F5994463D
:102CB000D1625363734894620023C2F83090DFF806
:102CC00020B20022CCE90223CCE90423CCE906237C
:102CD000CCE908236C4A4FF050434FF400310360B5
:102CE000CBF800304FF00060624B136003F072FCD1
:102CF00003F00EFA03F09CF82146304608F02EFB54
:102D00002021012008F082FB0028F9D103F010FDFA
:102D10005E485F4C03F070FA4BF6803002F006FE1E
:102D200000BF013CFCD15A4E00BF013EFCD15848C7
:102D300000BF0138FCD1564C00BF013CFCD12868D3
:102D4000544E554D02F04AFD02F046FE20225349F2
:102D5000534802F0D7FE02F063FF524B31681A6805
:102D600042F0010018605C60296073684E4CB1F558
:102D7000C87FA3F6A66684BF96202860B6F5AD7F0F
:102D800028BF4FF47A664948236028BF266002694D
:102D9000560740F1B9804FF40061DFF848B1216077
:102DA000296000260169DBF80C302A6811F0040F55
:102DB000216808BF0126934238BF2B608B4288BF31
:102DC0002360334B00BF013BFCD1022E00F08C800E
:102DD000012E01D01E46E5E7036913F0040F18BF6A
:102DE0000226DFE7981200208C13022044100020F6
:102DF0004810002084130220BC13022074200220FB
:102E000050100020701000201410002034100020FA
:102E10003010002058100020541000209012002084
:102E2000EC120020E8120020381302202C100020A1
:102E300000130020281000208813022040100020DA
:102E4000881C0220B01302202010002000882A11C4
:102E50003C1302204C1000209C1302202C13022053
:102E600018140220CC13022028130220681000201E
:102E7000003802400813002000180240A812002069
:102E800093A9AA3F6C20022010210220F00F0020FD
:102E900040420F0000C0000894120020441302209A
:102EA000D0130220001000E0881200200010024021
:102EB0009C12002020130220C4130220E4120020E0
:102EC000C8130220741000208C12002094130220DA
:102ED00040130220A4130220B8130220AC130220D6
:102EE0001C210220681C02200BF048F831461820F3
:102EF0000BF056F929689A480BF03CFA216899487A
:102F00000BF038FA0BF04AF826682D689648974A75
:102F1000974C01682160731B07EE903AB8EE670A80
:102F2000F7EE006A86EE807A924E934D934C82EDD6
:102F3000007AFFF79BFD0DF29C70CDF89C6703F0C3
:102F400019FB8F4A8F488421002304262B602160BF
:102F500001601660FFF784FC2C258B4A00BF013A04
:102F6000FCD1013DF9D18049884E89480B6836680B
:102F70009FED888A2560049503600DF1E40BEEB99E
:102F8000049A002A00F0D180834C256915F00206CE
:102F900040F0CB803D68814A0121EB04116000F1D3
:102FA000B980A80440F1588104F08EFA77493B6853
:102FB0000E6823F400553D60002EE1D0012E3D68DF
:102FC000E9D1002D40F02B81754B674A1C681268CF
:102FD00004F53B3E0EF500709042C0F05B837149F2
:102FE0000B68022B00F041816C4C2660E90700F170
:102FF000B384AA0600F17285012615F4006400F07E
:103000003C84664C0025012E256000F05686D8F8D9
:103010000050012D40F3698601263446214629A837
:10302000FEF7A8FF002129A810F07EF850B9A642AB
:10303000314631A805D0FEF79DFF31A929A810F02F
:1030400003FC0136D8F8001001348C42E6DB701E18
:10305000554B186004F038FA3D684C4A4F491668E1
:1030600025F40060012438600C6088E7D8F800601F
:10307000864240F3ED804C4D4C4901302860086099
:103080004A4CD3A80FF090FB216821A8FEF772FFED
:1030900004F0BAF821A91322D3A80FF0E1F86323B2
:1030A0000021D3A816930FF09FFD70B919AA18A993
:1030B0001AAD17AE029201910395009616AB15AAB0
:1030C00014A9D3A8FEF790FAC0B2179C384B9C42C3
:1030D00003D1169D022D00F017850022D3A8189267
:1030E000FEF72EFDC1B2002900F0BA83D3A80FF07D
:1030F0005BFB3049254E012200200FF04FF8189855
:10310000002188423160C0F2B683C01045F6C0513C
:1031100003F0B6FD04F0D8F938681C4920F4805259
:1031200042F084040E683C6029E7012221490DF237
:103130009C700FF033F8002800F0A68013490E6849
:103140003CE71D4A1D49136801200860002B00F070
:10315000D382D8F80050012DC8BF012435DC3FE0F0
:1031600000C0000804C00008881C022010140220BF
:103170006C1000201C030101381000207C1000207E
:103180003C1000201414022040420F009012002036
:10319000241000200001003800080240881302209B
:1031A0009013022038130220A012002040100020AB
:1031B00032336C6674E903088C2002202813022045
:1031C000D8F800600134B4420ADA214631A8FEF78B
:1031D000D1FE002131A80FF0A7FF0028F0D00794FE
:1031E000079CB94A214621A81460FEF7C3FE0023BC
:1031F00021A91322D3A818930FF032F8D3A8FEF711
:103200009FFCC1B2002900F032863868AF49B04A4D
:10321000012640F4006500243D600E601460AD4B53
:103220001E68022E21D0AC4C0120EA04206040F13F
:103230001281AA4DAA4B2A69A3491868096802F0AD
:10324000020454EA060303D1B1F57A7F3FF40EAFCE
:103250008842FFF65FAF13E7EA0740F11E839B4BFE
:103260001E6825F00100386089E69A4A9A4B0120D1
:10327000E9041060186040F1EE809848924A984E38
:10328000036911683068E3E70146032004F05EF843
:103290009448016811B94FF0FF330360D8F800601B
:1032A000012E40F32E8401252E46314629A8FEF733
:1032B00061FE002129A80FF037FF50B9B542294619
:1032C00031A805D0FEF756FE31A929A810F0BCFAA6
:1032D0000135D8F8002001369642E6DB6C1E8048A6
:1032E0008149046013220DF274500EF0B9FF0028DA
:1032F0007FF424AF7D4E7E4D7E4C81460DF274529C
:103300004021584611F0CAF809F10109002800F0DF
:10331000DB819DF87B35002B41F03781B9F1010F3E
:103320009BF800A05FD09BF801C09BF802E09BF8DF
:1033300003000CEB0A210EEB01226F4900EB022087
:10334000884200F0BB8019D801F17A4C0CF5302E80
:103350000EF59D72904200F0968126D96749884209
:1033600000F0568100F21981654A9042C6D19BF85F
:1033700005C06449ACF130034B62BFE7B04200F0D6
:10338000888020D8604A904200F0918002F2F65C7A
:10339000604577D00CF17F4A5045AFD19BF805309E
:1033A0005849A3F13000C860A8E7584A904277D046
:1033B00002F530218842A1D19BF805A0514AAAF11B
:1033C000300050619AE7A84200F0E080A04200F08F
:1033D000DD804F4B984291D19BF805E04949AEF111
:1033E0003000C8618AE71A46DC4605E040280246FC
:1033F0000EEB4A0300F065811CF8011B202903EB4A
:10340000830AA1F1300E02F10100EFD1402800F053
:1034100058811BF80000202800F0538102325A44E2
:103420000BF1400C4FF0000E03E012F8010B2028C6
:1034300007D00EEB8E01A0F1300A94450AEB410E45
:10344000F3D105EE10EABAEEC85A1F4A1360314BA9
:1034500083ED005A52E7AC047FF5C8AD2E480168F1
:10346000D3A80FF0C1FB002800F06E82D3A8174C40
:103470000FF09AF900260122284900200EF08EFE56
:10348000266091E59BF805E01E4AAEF1300191609F
:1034900034E79BF805A01B4BAAF1300018612DE71B
:1034A0009BF805E0174BAEF13000986126E79BF8DA
:1034B00005A01448AAF1300303621FE70DF1E80AE2
:1034C0000DF16C0C31E000BF401000209012002084
:1034D000281302203813022088130220000802401B
:1034E000A0120020E012002024E30308646F6D7234
:1034F00070657473706F73763372636D3172636D60
:10350000706F6E69A81200206E696D70706F6B63CA
:10351000706F7372602002206410002074E9030849
:103520000133142B0CF8012B08D01AF8012F202A94
:10353000F6D10DF16C0E00200EF803001BA814F05C
:1035400001FA51EC100BFCF745FE01EE900AB5496B
:10355000F5EEC01AF1EE10FA486340F3C981DFEDD1
:10356000B20AF4EEE01AF1EE10FA07D4F3EE000A14
:10357000F4EEE01AF1EE10FA04DDAA49C1ED0D0AED
:10358000F0EE601AA94AC2ED021AB7E69BF805C030
:10359000A44AACF130011160B0E60DF1E80C0DF178
:1035A0006C0E04E00133142B0EF8010B08D01CF84C
:1035B000010F2028F6D10DF16C0A00220AF8032031
:1035C0001BA814F0BFF951EC100BFCF703FE04EE3E
:1035D000900A9449F5EEC04AF1EE10FA086340F300
:1035E0007181DFED913AF4EEE34AF1EE10FA07D47F
:1035F000F3EE003AF4EEE34AF1EE10FA04DD894905
:10360000C1ED0C3AF0EE634A8848C0ED014A75E618
:103610000DF1E80C0DF16C0E04E00133142B0EF8E3
:10362000012B08D01CF8012F202AF6D10DF16C0ACD
:1036300000200AF803001BA814F084F951EC100BC9
:10364000FCF7C8FD03EE100A7649B5EEC03AF1EE7C
:1036500010FAC86240F362819FED732AB4EEC23A59
:10366000F1EE10FA07D4B3EE002AB4EEC23AF1EE4E
:1036700010FA04DD6B4981ED0B2AB0EE423A6B4A39
:1036800082ED003A3AE69BF805A06648AAF13003BD
:10369000836233E6664B2946D3A81A600FF0A4FA7A
:1036A000002840F0B180D699D3A80FF09DFA0028E9
:1036B00040F0AA805F4D2E683D68012E3FF4AFAD0B
:1036C00069E49FED5D5AC0E681460DF274500FF03B
:1036D0006BF83A68594842F0800349463B600FF066
:1036E00023FD04283FF42DAD5548016821B1554E06
:1036F0003568012D3FF42DAD534C266816B94FF0B7
:10370000FF352560514A524B116821A800241C60E6
:10371000FEF730FC03F078FD21A91322D3A80EF0A8
:103720009FFD63262146D3A816960FF05DFA70B967
:103730001AA819A918AD17AC03900291019500942D
:1037400016AB15AA14A9D3A8FDF74EFFC0B2179B5C
:10375000404A934203D1169E022E00F03C81002580
:10376000D3A81895FEF7ECF9C6B2002E00F09F80A2
:10377000D8F80000012835DD01252C46214629A86E
:10378000FEF7F8FB002129A80FF0CEFC50B9A542A6
:10379000294631A805D0FEF7EDFB31A929A810F084
:1037A00053F80135D8F8003001349C42E6DB013D86
:1037B000294A1560C6B9189E002E23DBF0101D4E55
:1037C00045F6C051012403F05BFA346003F07CFE3F
:1037D00038683668049440F004053D60012E7FF49B
:1037E000DAAB1CE51C490D60D3A80EF0DDFF1B49C8
:1037F000012200200EF0D2FC189E0E4900208642C5
:103800000860DBDA0736D9E7D3A80EF0CDFF3246E1
:10381000284612490EF0C2FC064A2E4615603D6845
:10382000FFF7B9BBA81200200000803D2421022030
:1038300090130220901200200000000078E9030895
:103840008C20022028130220E012002040100020CB
:10385000EC12002032336C66A012002074E90308D9
:10386000D3A8FEF70BF810F0FF0F7FF43FAC1898C9
:103870000028BFF64AAC073047E46B0740F12381CC
:10388000012E00F0358203F01FFE3868B94E20F09B
:10389000040336683B60FFF772BBAB067FF5ADAB48
:1038A000B44825F0200406683C60FFF768BB314649
:1038B000D3A8FDF7E3FFD8F80040012CC6B23FF7CC
:1038C0005BAF75E7DFEDAC3AF4EEE34AF1EE10FAE8
:1038D0003FF795AEBBEE004AF4EEC44AF1EE10FAA3
:1038E0007FF592AEA54BF0EE444A83ED0C4A8BE691
:1038F000DFEDA10AF4EEE01AF1EE10FA3FF73DAE6B
:10390000BBEE001AF4EEC11AF1EE10FA7FF53AAEF2
:103910009A4BF0EE411A83ED0D1A33E69FED962A8D
:10392000B4EEC23AF1EE10FA3FF7A4AEFBEE002A75
:10393000B4EEE23AF1EE10FA7FF5A1AE8F4BB0EEA5
:10394000623AC3ED0B2A9AE6D3A80FF09FFCD3A8E6
:103950000EF0C6FEFFF728BB89498A4E0968336816
:10396000894D1944D3A80FF03FF92A68B2F5804F6A
:10397000C0F2BF80854C2168A2F58046B20001F5F7
:10398000803112ABD3A80EF07FFE7D4C7D4D2368B5
:103990002A68129913441944D3A80FF025F9216815
:1039A0002E68129BD6980E441E44864280F04081B9
:1039B0001944D3A8FDF762FF8146D3A80EF090FE0C
:1039C00019F0FF0F40F03A81714D6A4A01212960D8
:1039D00016683D6845E400287FF4C1AEDDE9184370
:1039E0006C4A684D6C4916682B60002CB8BF0734D0
:1039F000E0100860002E7FF4E2AE03F005FC67489B
:103A0000016821A8FEF72CFB032221A949A80EF08A
:103A100027FC00287FF4CFAE0BF1400A49AA4021D1
:103A2000584610F03BFD002800F0E6839DF82B314E
:103A3000002B40F0E183DC4602E0402D2B46EDD028
:103A40001CF8014B202C03F10105F6D1402D03F1A8
:103A5000020300F01B841BF80520202A00F01684C6
:103A60000BEB03060020CBF1010103E016F8012B5C
:103A7000202A09D000EB8003A2F1300EB2450EEBF4
:103A8000430001EB0603F1D13F2BC7DC1BF80350C9
:103A9000202DC3D00A2DC1D001335B44002105E0A5
:103AA00013F8015B202D09D00A2D07D001EB81040A
:103AB000A5F130099A4509EB4401F1D10029ADD0B7
:103AC00003F0DEF8A8E715F0080A00F0CB802948DB
:103AD00025F008043C600668FFF751BA2D4E304DC2
:103AE000336855F82320D3A8D100FDF7C7FE3D6801
:103AF000D6E626489200016812ABD3A80EF0C4FDAA
:103B000043E70024FFF7EBBB00287FF4E6AADDE9DA
:103B10001843204A1B4D204E11682B60002CB8BF63
:103B20000734E010306000297FF4F0AA03F06CFB4A
:103B30001A48016821A8FEF793FA032221A949A88F
:103B40000EF08EFB00283ED049A80EF02DFE1898EE
:103B50000028BFF6DAAA8EE600203F2B35DC1BF8E2
:103B60000350202D31D00A2D2FD001335B4400218A
:103B70001EE000BF90120020000080BDA8120020AF
:103B80001C130220641000201813022010210220B0
:103B9000541000208C200220181402204010002015
:103BA0005C21022013F8015B202D09D00A2D07D0DB
:103BB00001EB8104A5F130099A4509EB4401F1D1EB
:103BC00019B103F05DF80BF1400A49AA40215846AB
:103BD00010F064FC0028B7D09DF82B31002BB3D136
:103BE000DC4602E0402D2B46EFD01CF8014B202C88
:103BF00003F10105F6D1402D03F10203ACD01BF80F
:103C00000520202AA8D00BEB03010020CBF10106F0
:103C100003E011F8012B202A9FD000EB8003A2F1D2
:103C2000300E8A450EEB430006EB0103F1D194E719
:103C3000D3A80FF02BFB2168129BB9E6D3A80EF096
:103C4000B3FD0122AB49AC4D00200EF0A7FA3E684F
:103C5000AA4A002426F0010301213B602C60116078
:103C6000FFF78EB915F4804400F0F580A44BA54908
:103C700018680E68A449099051F8264051F82000B0
:103C80000D96031B0894A14AA14C0A90013E002BFB
:103C9000C2F800A0206051F8269080F2E181964E93
:103CA0009A4A3668012E08BF45F4006525F4804520
:103CB00000213D601160FFF762B99649D3A80968F9
:103CC0000EF092FF0446D3A8002C00F045810EF0C0
:103CD0006BFD3246884E874928460EF05FFA356004
:103CE000D8F80050012D3FF797A90020FFF7B0B991
:103CF000894B884E894D18683268844B2E68D69956
:103D00001C60012E4FEAC003854E864D33601A4475
:103D100016BF4FF4007620264FF080658A42059644
:103D2000BFF4B1AD7A4A8049804EDFED818A1060E0
:103D300008608048D0F800A0BAF1000F6ED1754A33
:103D4000116803EB010929F00301D3A80EF04CFF21
:103D500013AB794A3146D3A80EF050FB002840F04F
:103D60005582DDF84CE0BEF1030F84BFAEF1040EC6
:103D7000CDF84CE019F0030F7ED14FEA9E036F4956
:103D80003A6806980860624922F004023A60D1F865
:103D900000C08BB36A486B4902680968013B0CF1AB
:103DA000004A4FEA53090AF1FF3A4FEA4A0A09EB7F
:103DB0000C005E4B02EB40005144524493ED000A6C
:103DC000D3ED016A60EE280A26EEA81AFDEEE01A8D
:103DD000BDEEC12A11EE90AA22F802AF12EE10AA8F
:103DE000824203F1080321F802AFE7D10CF1010C84
:103DF000474ACC44C2F800C049484B490368C1F85F
:103E000000C07344AB42036002DABEF5003F19D034
:103E10004848434ED0F800A000253560BAF1010FA4
:103E200002D1444A00241460344D2E680EB901209A
:103E300028603749444A354D002301240B60136044
:103E40002C6020E5059A0134A2427FF472AF394C10
:103E5000D4F800A0E2E7680645D5002E40F0E781DF
:103E6000254E25F040023A603668FFF788B8D3A89F
:103E7000FDF704FDFFF7C9B9BEF1000F00F0408265
:103E80000EF1FF30022840F236820699274A069644
:103E90004FEA9E0301EB830CD2F8020042F8040BB8
:103EA0009445F9D12EF00309CE45CA4600F0CE81E3
:103EB0002649069811F8092000F809200AF101099D
:103EC000F145BFF45CAF224911F80A2000F809203F
:103ED0000AF10209F145BFF452AF1E4911F80A2058
:103EE00000F809204BE7290600F17D81024E366873
:103EF000FFF745B874E90308901200205410002021
:103F00008C200220BC1C02205C210220881302208D
:103F1000E812002064100020101302203813022041
:103F2000F012002000E02E001413022008130020DD
:103F300000FEFF46CC13022004000200F412002011
:103F4000FC20022000210220EC1200200A13002095
:103F50000B1300200C1300200FF098F9D3A826466D
:103F600025460EF0BDFBBE4ABE4B1068BE491A681E
:103F7000BE4B059008681968BD4B04F1004E0EF168
:103F8000FF3C53F82090059B4FEA4C0003446FF030
:103F9000030A9C46AAEB010E10440B1D04F5804A4F
:103FA00018E03CF9022F02EE902A30F9022F03EEBE
:103FB000102AB8EEC34AF8EEE23A24EE085A63EE4D
:103FC000884A013415EE102AA24543ED014A43F810
:103FD000082B42D0A1450EEB0302E2D812ABD3A8C6
:103FE0000EF052FBA049A24A0B68396852F8233000
:103FF000129A11F4804F18BF4FF480659C4216440A
:104000001BD20135E8B9B5F5007FACDB3EF4FFAF5C
:10401000984C2168D3A831440EF0E6FD2368D69A67
:1040200033449342C0F063813146D3A8FDF726FCA8
:10403000D3A80EF055FBFEF7EABF0028E8D040F207
:104040000125D3A80EF0B0FB8B49012200200EF011
:10405000A5F88A4900200860D5E74FF40032BDE793
:1040600000F06C81089D7E497E4A086811684FEA1D
:104070004906023505966D002C1FAE46059D059E2E
:10408000CDF830E005F1040C8644051901EB0C0273
:104090008E19764538BF9542CDE90F620E950C9A80
:1040A000059D2CBF4FF0010E4FF0000E9542B8BF9A
:1040B0006445ACBF012200220C440EEA0206A6466B
:1040C0000C9C0B960D1911950B9D059C5E1E062EE2
:1040D00094BF002505F001052E46119D0419844466
:1040E000AC4238BFE6452CBF012500252E401642C4
:1040F0000B9400F0E480DDE90F62664538BF94421E
:10410000C0F0DD802546DDF838C05C085246A400CA
:10411000B2465CF80260AE505EF802604AF8026097
:1041200004329442F5D123F0010E9E450AD0089A3C
:104130007244CE4430F9125020F81E5031F912006A
:1041400021F81E004B440A9999422CDD444A454807
:10415000156804689E1C72005800A9182E18224485
:104160002044964238BF8842C0F0D5800A994A1E42
:10417000D21A0B2A40F2CF80A1EB030C4FEA5C0A63
:1041800006EB8A014FF0000E40F804EB46F804EB12
:10419000B142F9D12CF001006045034403D024F86A
:1041A00013E025F813E0099E0D98089D8642A5EBC3
:1041B00009010CDD2E4A099C02EB800A02EB840304
:1041C000DAF804506E1A4AF8046B5345F8D109998D
:1041D0002748254B00224C1E40F821201C6002F08D
:1041E000DBFD3D685BE5012E5ED0244B25F08005AC
:1041F0001E683D60FEF7C3BE49A80EF0D5FA189EB2
:10420000002EBFF6DBAA0736FFF7D8BAD3A8CDF841
:104210004CA00EF0C9FA1849504601220DF0BEFF1D
:10422000164B1749C3F800A0D1F800A0F6E5D699BF
:10423000D3A80EF0D9FC60BB10490C68012C7FD0CC
:1042400002F0E2FF3C6844F0200509E63A680D49B7
:1042500022F004000C4A0E603860D2F800C099E5E4
:10426000FC200220002102208C20022010210220AC
:104270005C2102206410002074E9030890120020E1
:10428000CC130220F4120020E81200200020FFF7D7
:10429000FBBBD3A80EF088FA0122C24920460DF0DC
:1042A0007DFFC1480460CBE70B22C0490DF274507A
:1042B0000DF0D6FF0546002857D03D6895E70C9CC9
:1042C000059E0B9DA4F1060CA6F1020A4B448A44FC
:1042D00000EB4302614484443CF9020F25F8020BD1
:1042E00031F9024F2AF8024FAA42F5D12BE7D3A8A1
:1042F0000EF0CCFF98E64FF000094FEA9E03D7E599
:104300003B68AB48069A026023F00401A94B396070
:10431000D3F800C070E503F100435E1E7000A21EDA
:10432000054420440A9C4FF0000C02EB440320F8A3
:1043300002CF834225F802CFF9D134E74B4602E79A
:10434000D3A80EF031FA9C489C4E81460068FDF7D8
:10435000CFFFD9F800203D68336845F480519A4278
:10436000A8BFC9F8004039606AE701460DF27450F1
:104370000EF03AFC002840F0FD8091488E4B90ED05
:10438000007A1A688F49F0EE475AFEEEC85AB2F525
:104390007A7FCDED055A06BF012215EE903A059BB6
:1043A0000DF2745010F02EFA87490DF2745010F08F
:1043B00029FA864A12686E2A00F0D68084490DF2E6
:1043C000745010F01FFA834C7F49834E0DF27450E5
:1043D00010F018FA81490DF2745010F013FA2268A7
:1043E0007F490DF2745010F00DFA626A7D490DF2AA
:1043F000745010F007FA226A7B490DF2745010F0E5
:1044000001FAE26879490DF2745010F0FBF9A26AE2
:1044100077490DF2745010F0F5F9E26975490DF223
:10442000745010F0EFF9A26873490DF2745010F057
:10443000E9F9A26971490DF2745010F0E3F962696B
:104440006F490DF2745010F0DDF996ED006A052108
:10445000B0EE460A1BA884ED0B6AFDF703FC1BAA0D
:1044600068490DF2745010F0CDF9D6ED018A05219E
:10447000B0EE680A1BA8C4ED0C8AFDF7F3FB1BAA7B
:1044800061490DF2745010F0BDF9D6ED027A0521A4
:10449000B0EE670A1BA8C4ED0D7AFDF7E3FB1BAA7B
:1044A0005A490DF2745010F0ADF947490DF27450AD
:1044B00010F0A8F956490DF2745010F0A3F94249D2
:1044C0000DF2745010F09EF952490DF2745010F034
:1044D00099F951490DF2745010F094F94F490DF2C9
:1044E000745010F08FF94E490DF2745010F08AF9A3
:1044F0004C490DF2745010F085F94B490DF274508F
:1045000010F080F949490DF2745010F07BF94849D8
:104510000DF2745010F076F946490DF2745010F017
:1045200071F945490DF2745010F06CF943490DF2E0
:10453000745010F067F942490DF2745010F062F9AE
:1045400040490DF2745010F05DF93F490DF274507E
:1045500010F058F93D490DF2745010F053F90DF276
:1045600074500EF021F9A8E639490DF2745010F09C
:1045700049F928E7D3A80EF017F90A493246284628
:104580000DF00CFE08490D60F7E60DF274500EF0C8
:104590000BF93D68044E45F0800536683D60FFF735
:1045A0001DB900BF74E903089012002024E303083A
:1045B000F4120020E812002040100020A012002079
:1045C0006020022030E303083CE3030814140220B7
:1045D0005CE30308A81200202421022074E30308EE
:1045E0008CE30308F8E3030838E40308C4E4030891
:1045F00014E503084CE50308F4E5030834E6030872
:10460000A0E60308D4E603081CE7030864E70308F0
:10461000ACE70308D0E70308F4E7030808E8030859
:1046200020E8030838E8030850E8030868E80308AE
:1046300080E8030894E80308ACE80308C4E803082A
:10464000DCE80308F4E803080CE9030820E90308A0
:1046500040E3030870B5042008F03AFDD8B1214AC0
:10466000214B1268196821488A420068204913D0FA
:10467000204E346844B9204D204E2C69366804F42D
:10468000805C5CEA06040CD008601A600420BDE877
:10469000704008F027BD70BD0C68051B602DF5DD6E
:1046A000E6E7174C266976070FD52D69EC0402D48E
:1046B000144C01262660144E144C154D36682660A5
:1046C000144C01262E60002525600D4C266916F03D
:1046D0000404D9D10B4D0E4E2C600E4D34600124D4
:1046E0002C60D1E78C130220481000208413022094
:1046F0004410002038130220001802409C120020B1
:1047000000100240B0130220881C0220BC130220BB
:10471000A8130220C01302202DE9F04F012183B01D
:104720004FF0804009F0D6FA002800F0BA80B54B6F
:10473000B54AD3F800E0B5491068B54DC2F800E0BD
:104740000C692A68AEEB0006A7074FEAE6034CBFE8
:1047500003EB020CA2EB030CBCF1040F00F3A480EA
:10476000BCF1000F80F29C850027BC462F60B94643
:10477000A848A94C05692268EE044CBFD218D21A89
:104780000A2A40F336810A2222604FF0010AA34F21
:10479000A34938690C6845074CBF1B19E31A0A2B5B
:1047A00040F38F810A2309F101090B609D4C9E4D56
:1047B000DFF8CC822668DFF8CCB29C4F2968D8F8A5
:1047C00000009FED9B7ADBED007A0436013926600C
:1047D0003E68009101380AEB0901F4EEC77A0191B5
:1047E000C8F80000711E00982860F1EE10FA3960D8
:1047F00005D5B7EE000A77EE807ACBED007A854ECC
:104800003069410500F14A818A4E012030608A49B1
:104810000868082806DD894E4FF001090A20C6F80D
:1048200000900860DFF860A2854EDAF810903668D4
:1048300019F0200F02D0012E00F0B382DFF8FCA1A6
:104840000020CAF800000EB96FF01F0008607D4E0E
:10485000D6F80090B9F1010F07D178484FF00A0A55
:10486000C0F80090C1F800A05046DFF82092D9F8B7
:104870000010132942D8DFE811F06D04D504BF04FD
:10488000E00321040A041604EC034D042B040A047B
:1048900062041D009B04A6040A04E304F604C90391
:1048A0000A0403B0BDE8F08F042129608C464FF064
:1048B00001095DE7644B196801F50C3A0AF52070AF
:1048C000864504DD614B1868400440F14C8601F5D3
:1048D0003B5120318E4504DD5D4B1868002800F007
:1048E00058860198002800F02E853AB9BCF1000FD7
:1048F00004D057490D230A60C9F80030554A9FED8E
:10490000561AD2ED001AF4EEC11AF1EE10FA40F385
:10491000DE80DFF87CA1DFED512ADAF80010C2ED6D
:10492000002A1029B0EE623A00F0DE80DFF86481E0
:10493000D8F80000002840F09282494803683548C2
:1049400023FA01F2D3074FF4006100F1278206F049
:104950002DFF4FF480412F4806F02AFF0121C8F8AF
:10496000001021683F484BF6803A5145036800F03B
:10497000318201F4805C3C2B05D13B4A1368002452
:10498000013313600460394ADFF80C81136838483A
:104990002D680824642BC8F800400460C4BF0924B3
:1049A000C8F80040BCF1000F03D13268002A40F083
:1049B00006823F68002FC0F2F7810C0500F1F481F8
:1049C000002DC0F201822B4A1768012F04D12A4E14
:1049D000336859000131016028480468002C00F058
:1049E0003B8201214FF0804003B0BDE8F04F09F059
:1049F0007FB9002A80F26484002632462660B246DF
:104A0000C5E600BF881C02206C1000200008024090
:104A100098130220001802402413022000100240C4
:104A2000A013022084130220B81302203C1302209A
:104A30000000484314100020F8120020E412002067
:104A40005410002038130220BC13022074200220CE
:104A50004013022078100020C2F5683F00000000DB
:104A6000701000208C1302209812002040100020AB
:104A70003C10002058100020681000207C100020FE
:104A8000AC13022010100020000002402010002073
:104A9000741000203410002038100020D048016825
:104AA00001297FF4B4AEDFEDCF0AF4EEE07AF1EE47
:104AB00010FAFFF6ACAECC4ECBF8006000210160DE
:104AC000A5E6002B80F2F58300230B606EE6DFF88D
:104AD0007CA39FEDC62ADAF8001031EE823A102945
:104AE00082ED003A7FF422AFC14803687F2B40F388
:104AF0001D827F2202603F23BE49D1ED006AF7EE9E
:104B0000003AF4EE636AF1EE10FA00F0BF81BFEEF6
:104B1000006AF4EE466AF1EE10FA00F01A82B64826
:104B2000B64AF0EE005A9B00F4EE656A18441A4447
:104B3000F1EE10FAD0ED001AD2ED003A00F0A881A3
:104B4000B6EE004AF4EE446AF1EE10FA00F0A081ED
:104B5000F5EE004AF4EE646AF1EE10FA00F0988186
:104B6000B1EE005AF4EE456AF1EE10FA00F09081D1
:104B7000B4EE007AF4EE476AF1EE10FA00F08881A4
:104B80009FED9F0AF4EE406AF1EE10FA00F080818A
:104B9000F8EE007AF4EE676AF1EE10FA00F0DB81CD
:104BA000FEEE000AF4EE606AF1EE10FA00F0D38136
:104BB000BDEE001AF4EE416AF1EE10FA00F0CB817E
:104BC0009049F5EE406A0B44F1EE10FA93ED002A9D
:104BD00007D0F5EEC06AF1EE10FA00F35B8100F148
:104BE000BC818949086820F4406222F00C0E4EF422
:104BF000007C4CF002038548854A90ED001AD2ED06
:104C0000001A8448844A90ED002AD2ED002A834895
:104C1000834AD0ED006AD2ED003A8248B4EEC31A5E
:104C200023F44453F1EE10FA0B60F4EEC31A44BFC0
:104C300043F400530B60F1EE10FA48BF43F4807365
:104C4000B4EEC32A48BF0B60F1EE10FA48BF43F43C
:104C50008053F4EEC32A23F07003F1EE10FA0B60D8
:104C6000F4EEC36A44BF43F010030B60F1EE10FA98
:104C700048BF43F04003F4EEC33A48BF0B60F1EE87
:104C800010FA48BF43F02003026823F480430B600E
:104C90004AB19FED656AB4EEC63AF1EE10FAC4BFB0
:104CA00043F480430B606148026812B143F48043CF
:104CB0000B60206810F4006C06D0D9F80020103A80
:104CC000012A98BF43F48043594A126823F0010334
:104CD000012A0B6008D1574A126800F4805E5EEA30
:104CE000020218BF43F00103D8F8002040F2E63E6C
:104CF00002F1FF3823F08003F0450B6040F20F8192
:104D0000B2F57A7F02DDC20400F10981BCF1000F27
:104D10000BD0D9F80000A0F11002012A40F2038163
:104D200045480268012A00F0FE80DFF82491D9F896
:104D3000002043F40040022A08600CDD23F4004008
:104D4000DFF810C1531E40F0800001220860C9F84E
:104D50000030CCF80020394B1A68002A13DD203AC5
:104D60001A60D30506D520F4405020F0300848F4EE
:104D7000A0700860920506D520F4055E2EF010099B
:104D800049F481530B604FF400512D4806F00EFD9D
:104D90002C4900220A60CAF80020E2E506F008FD6E
:104DA000D7E50130086052E59BED003AB5EEC03A18
:104DB000F1EE10FA66DB03F00703C8F80030002DAF
:104DC00002DB0B057FF5FFAD1F490C6804F00705FA
:104DD0000560F8E5002101338C4603602160CAE5D7
:104DE0001410002000004843000048C3EC51B83DB7
:104DF000DC200220E8200220140200201400002001
:104E00000000803D140100207010002030130220AB
:104E10005C100020181000203413022060100020C5
:104E20001C10002020130220CDCC4C3F0821022072
:104E300090120020881302205810002050100020EB
:104E40000018024034100020BC1C02207410002006
:104E5000E81D02204C100020FDF702FDC1E54FF4D3
:104E60000051C24806F0A4FC4FF48041BF4806F050
:104E70009DFCDAF8003000220133CAF80030C8F88F
:104E800000206EE53668012E99D194E7F0EE631AA2
:104E90009FEDB72AB749B8480B68D0ED004AF4EE49
:104EA000C31A23F00E02F1EE10FAB4EEC32A48BF83
:104EB00042F00202F1EE10FA0A60F4EEC33A44BF87
:104EC00042F004020A60F1EE10FA48BF42F0080214
:104ED000B7EE005A22F4406CF4EE454A4CF40073ED
:104EE000F1EE10FA0B6007D0B6EE007AF4EE474A06
:104EF000F1EE10FA40F0C3814CF4C0630B60F6EEA3
:104F0000000A9E4AF4EEE04AF1EE10FA106813D55A
:104F100001287FF470AE9A4A9069A8B111E043F07D
:104F200080030B60F2E643F08003FEE63F2BCCBF2C
:104F3000403BC3F13F03DFE501287FF45CAE904ABC
:104F4000906902287FF457AE23F4007E4EF400638C
:104F500051E6F0EE631A9FED862A8649864B086873
:104F6000D3ED002AF4EEC31A20F46062F1EE10FAD9
:104F7000B4EEC32A48BF42F40072F1EE10FA0A60A0
:104F8000F4EEC33A44BF42F480620A60F1EE10FAD4
:104F900048BF42F40062F7EE006A22F00C00F4EE23
:104FA000662A40F00203F1EE10FA0B6014D0F6EE20
:104FB000003AF4EE632AF1EE10FA0DD09FED716A1B
:104FC000F4EE462AF1EE10FA06D0F5EE005AF4EEB1
:104FD000652AF1EE10FA02D140F006030B60B6EE3E
:104FE000004A664AF4EEC42AF1EE10FA106840F165
:104FF000AD8101287FF4FFAD614A9069002840F03F
:10500000AA8123F0020E4EF00803F4E55E48016821
:105010000198014340F061815C4A316013685C494A
:10502000B3F57A7F08BF01234FF0000008BF13607B
:10503000C1F800E0C9F8000060E4002A00F0BD817A
:105040005449086800287FF459AC0522C9F80020AB
:1050500054E4002AF9D0BCF1000F3FF44FAC4E48A5
:10506000026802F53B5320339E457FF747AC4B4B1C
:105070004B4A1868012108440328C8BF002011606A
:10508000186000F0ABFB0622C9F8002036E4019955
:1050900000297FF433AC3E4A4248C9F80010C2F8F8
:1050A00000E001602AE4BCF1000F7FF427AC3A482D
:1050B0000723C0F800E0C9F800301FE4002A00F020
:1050C00081813448002205230260C9F8003015E4CC
:1050D000354A106800F50C3A0AF520718E4500F348
:1050E000988100F53B522032964504DD2F48016837
:1050F000002900F060820198002840F0C6812B4909
:10510000284A234BC9F8000008601060C3F800E08B
:10511000FFF7F4BB002B00F044811D48002A00F08B
:10512000D880006800F5BB5310339E457FF7E6AB8F
:10513000022110223160C9F80020FFF7DFBB002BED
:1051400000F0528118490920C1F800E0C9F80000B8
:10515000FFF7D4BB0E490868903086457FF7CEAB89
:105160000123C9F80030FFF7C9BB00BF0018024097
:105170000000000070100020481F0220B01C022018
:10518000A81200209FAAAA3E9012002040100020E2
:105190002410002020130220C813022068100020D1
:1051A000581000209C130220BC130220A4130220DC
:1051B000002A00F0C480BC4A0C21C2F800E0C9F803
:1051C0000010FFF79BBBBCF1000F07D0B74909687F
:1051D000002940F0C480002840F3C180B449B54B99
:1051E000B54A01200860002119600F23C2F800E0D1
:1051F000C9F80030FFF782BB002A00F00281002BC3
:1052000000F0B880AD490868B0F5967F00F3B28031
:10521000AB48AC490123032203600B60C9F80020AE
:10522000FFF76CBBA84900200860002A79D0A74A84
:1052300011684A0475D40222C9F80020FFF75EBB4A
:10524000A348026812B9A34901230B609A48026877
:1052500002F5BB4140318E457FF750AB1123C9F8B1
:105260000030FFF74BBB019A002A7FF447AB92490D
:105270001223C1F800E0C9F80030FFF73FBB9FEDF3
:10528000960AF4EE404AF1EE10FA3FF435AEF5EE30
:10529000007AF4EE674AF1EE10FA7FF430AE2BE6B6
:1052A000C5F800C0CCBF4FF001094FF00009FFF76F
:1052B0005FBACCBF012000200B608144FFF776BAB3
:1052C0002260CCBF4FF0010A4FF0000AFFF75FBA2F
:1052D0007948C0F800E0FFF711BB002AF8D0BCF114
:1052E000000F00F01181DFF8D0A1DAF8002002F5FC
:1052F000BB3C0CF58070864540F34781774B1968BD
:10530000012900F07381714A7548136843F0400128
:105310001160102341F288320260C9F80030FFF7B3
:10532000EDBA002B00F09F8066486E4A01210160B3
:10533000082300201060C9F80030FFF7DFBA019899
:1053400000287FF4DBAA5B49674ADAE601287FF48C
:1053500052AC664A906902287FF44DAC51E6002BAE
:1053600000F0F580624B196801F6B83086457FF78A
:10537000C5AAE7E65E48BCF1000FAAD0026802F5B4
:105380003B5320339E457FF7B9AA5A4A4E491368CA
:1053900001200344032BC8BF002308601360184694
:1053A0006FE64848C9F8003003604E4A424B01217D
:1053B0001160C3F800E0FFF7A1BA0423C9F8003078
:1053C000FFF79CBA3E4B196800293FF43EAE3948BE
:1053D0000268BCF1000F00F00081002A7FF48EAA61
:1053E00001210160FFF78ABA019800287FF486AA9C
:1053F000304A314BC9F800001060C3F800E0FFF7F5
:105400007DBA2F48012104230160C9F80030FFF75D
:1054100075BA2A49384B0868DFF8E4A053F8202011
:10542000CAF8002040F6B8312960396001F0ECFE7E
:10543000DAF8000042F6E06101F022FC234A294933
:105440001368DFF8C0C01F4843F020031360002337
:105450000B602A49CCF800300A2203600B60C9F8BF
:105460000020FFF74BBABCF1000F3FF447AA114BE5
:105470001F480D4AC0F800E0012119600E23C2F850
:1054800000E0C9F80030FFF739BA002B7FF436AAE4
:10549000BCF1000F3FF432AA18480B220360C9F890
:1054A0000020FFF72BBA00BFBC130220E41200203B
:1054B000E01200209C130220241000208C200220E7
:1054C00020130220A813022058100020742002206C
:1054D00088130220CC1302209FAAAA3EA01200200B
:1054E00050100020C013022040130220A8120020F8
:1054F000C8130220681000205C210220A41302209F
:1055000018140220B4130220002B3FF4E1AEDFF8A0
:1055100040A1DAF8001001F5BB50103086457FF746
:10552000EDA9404A40491368DFF80CE13F4843F4D5
:105530008053136000230B603D49CEF800301322E6
:10554000336003600B60C9F80020FFF7D7B9002A69
:105550003FF4D4A93748026802F6B83AD6453FF777
:105560002AAEFFF7CBB940F6B8312960396001F0B7
:105570004BFE2C48026842F4005C4CF020030A21E8
:105580000360C9F80010FFF7B9B9002B3FF4B6A9C2
:10559000BFE7009001F054FD2748009B224A2349B1
:1055A0000360264813600B6001224FF47A73026097
:1055B0002B60FFF7A3B9009101F0C2FC1E4A0098CE
:1055C00019491A4B10601E4A0860186001214FF4F7
:1055D0007A7011602860FFF791B9012A7FF48EA9D3
:1055E000184BC0F800C01A60FFF788B910480021B6
:1055F0000160316001F008FE0A49134B0A681B681C
:10560000CAF80030114842F4005A4AF0200241F230
:10561000883C13230A60C0F800C0C9F80030FFF7C7
:105620006DB900BF74200220C0130220A81302200D
:10563000E4120020C8130220B413022040130220F9
:10564000A4130220E0120020881C02205010002029
:1056500024100020D0E9002388B0D0E90265009230
:10566000046941690193D0E9060202960395049406
:10567000059106900792FEE7FEE700BF1EF0040FBB
:105680000CBFEFF30880EFF309808169004A1047EF
:1056900055560208704700BFFEE700BFFEE700BF97
:1056A000FEE700BFFEE700BFFEE700BFFEE700BF6A
:1056B000002070472DE9F041394C3A4D4FF49613D4
:1056C00007460E46236004E02068411E2160002842
:1056D00063D04FF40031284606F066FA0028F3D173
:1056E0003048DFF8CC802F4D012106F055F94FF4FA
:1056F0008050206004E023685A1E2260002B4CD0AA
:105700004146284606F03CFA0028F4D03421002215
:105710002448DFF8A080234D06F056F94FF480515D
:10572000216004E02068411E2160002835D04146F8
:10573000284606F025FA0028F4D0C6F3002242EAF3
:1057400047051848184FE9B2054606F0BDF94FF471
:105750008053236003E023685A1E2260EBB1394670
:10576000284606F00DFA0028F5D00E48F1B24FF4A5
:10577000961780460D4E06F0A7F9276003E02068D3
:10578000411E216048B13146404606F00DFA00281E
:10579000F5D00121034806F00BF90020BDE8F081A7
:1057A000140300200058004080000700040000108F
:1057B000010003008200070038B500210F20FFF729
:1057C00079FF054D0024E0B235F8021B0134FFF7E4
:1057D00071FF0A2CF7D138BD3CEB030810B58400EB
:1057E0001334A4B221460020FFF764FF21460120B4
:1057F000BDE81040FFF75EBF30B50F4C0F4D85B0D0
:1058000001214FF4800006F0D1FB204605F0F2FFA5
:105810000B4A0C4B01924FF4804C20460121ADF80D
:105820000CC00093029506F095F82046694606F0F4
:1058300017F805B030BD00BF005800403300000429
:105840000000FFBFA086010030B5104C85B00546B2
:1058500001214FF4804006F0A9FB204606F05CFDD4
:105860004FF0000C4FF400724FF000732046694671
:10587000ADF80CC0CDE90023029506F0D5FD6946D0
:10588000034806F09BFE05B030BD00BF0038004065
:105890000034004030B5012183B0214C214D062059
:1058A00006F060FB204B204669464FF44062CDE98C
:1058B000002305F0FFFE204604220A2105F086FFA2
:1058C000204604220B2105F081FF40F2022C4FF408
:1058D000704269462046CDE9002C05F0EBFE4023DE
:1058E00069462846009305F0E5FE204605220C2176
:1058F00005F06CFF204605220D2105F067FF2046CC
:1059000005220F2105F062FF204605220E2105F039
:105910005DFF28460522062105F058FF03B030BD83
:1059200000040240000802400202010070B584B089
:105930000646FFF7AFFF01214FF4800006F036FB6B
:105940001E481F4D05F056FF1E491F4A1F4B01916F
:105950004FF480440121194802920093ADF80C40A5
:1059600005F0F8FF6946154805F07AFF2046012149
:1059700006F01CFB164806F0CFFC4FF40070002424
:105980006946029600904FF000761148ADF80C4041
:10599000019606F049FD69460E4806F00FFE2146C5
:1059A0000F20FFF787FEE0B235F8021B0134FFF746
:1059B00081FE0A2CF7D1002004B070BD00580040D1
:1059C0003CEB03080000FFBF33000004A086010089
:1059D00000380040003400402DE9F84F424D434C60
:1059E00001214FF4001006F0BDFA2846002106F010
:1059F0003DFF284606F066FE0FF2DC09D9E9008972
:105A0000DFF8F8C000224023CCE902234FF4806283
:105A10004FF40063CCE90089CCE906234FF000087D
:105A20004FF480734FF000094FF6FE7600274FF4D5
:105A3000403A4FF0000B4FF40052CCE90467CCE938
:105A400008236146CCE90AABCCE90C89284600253D
:105A5000CCF8385006F0CCFE01220221244806F092
:105A6000EDFD2946204606F001FF204606F02AFEFD
:105A7000DFF88CC01AA3D3E90023CCE904674FF404
:105A800080664FF40067CCE906674FF400564FF488
:105A90008077CCE9002361462046CCE90289CCE935
:105AA0000867CCE90AABCCE90C89CCF8385006F091
:105AB0009FFE20460122182106F05AFF0D4B0E488A
:105AC0004FF48041012219601146BDE8F84F06F0FD
:105AD000B5BD00BFAFF30080000000000C380040EF
