:020000040802F0
:1000000000C0042099020208E9810208ED8102087B
:10001000098202080D820208118202080000000015
:10002000000000000000000000000000158202082F
:1000300019820208000000001D82020821820208C5
:10004000957C0208957C0208957C0208957C020844
:10005000957C0208957C0208957C0208957C020834
:10006000957C0208957C0208957C0208957C020824
:10007000957C02083D820208957C0208957C020866
:10008000957C0208957C0208957C0208957C020804
:10009000957C0208957C0208957C0208957C0208F4
:1000A000957C0208957C0208957C0208957C0208E4
:1000B00031820208957C0208957C0208957C020832
:1000C000957C0208957C0208957C0208957C0208C4
:1000D000957C0208957C0208957C0208957C0208B4
:1000E000957C0208957C0208957C0208957C0208A4
:1000F000957C0208957C0208957C020849820208DA
:10010000957C0208957C0208957C0208957C020883
:10011000957C0208957C0208957C0208957C020873
:100120006D82020861820208957C0208957C0208B3
:10013000957C0208957C0208957C0208957C020853
:10014000957C0208957C0208957C0208957C020843
:1001500055820208957C0208957C0208957C02086D
:10016000957C0208957C0208957C0208957C020823
:10017000957C0208957C0208957C0208000000002E
:10018000957C0208957C0208957C0208957C020803
:10019000957C0208957C0208957C0208957C0208F3
:1001A000957C0208957C0208957C0208957C0208E3
:1001B000957C0208957C0208957C0208957C0208D3
:1001C000957C0208957C020800B583B002F0E0FF40
:1001D000264A274882420DD2D443264920440B4662
:1001E00020F003000430084453F8041B834242F813
:1001F000041BF9D12049214A91420BD2CC430B4632
:100200000020224422F0030204320A4443F8040B83
:100210009342FBD11A4D02F0CDFF1A4C01A968465A
:1002200002F090FF2B1B032B04DD54F8043B98478E
:10023000AC42FAD1144D154C2B1B032B04DD54F8A2
:10024000043B9847A542FAD1114C124D9DE803009A
:1002500007F0FAF9631B0646032B04DD54F8043D4E
:100260009847A542FAD1304602F048FF000000202E
:100270007401002008BE020874010020805A00208A
:10028000C4030208C4030208C4030208C40302082A
:10029000C4030208C40302083C480047FEE700BF4D
:1002A0001EF0040F0CBFEFF30880EFF309807146D6
:1002B000374A10472DE9F041094C884682B005467F
:1002C000666BA76BA46A074802F044FFCDF8008074
:1002D0003B4632462146284602F080FFFEE700BF3B
:1002E00000ED00E0988D0208FEE700BF1EF0040F4D
:1002F0000CBFEFF30880EFF309807146254A1047E1
:100300002DE9F041094C884682B00546666BA76B23
:10031000A46A074802F01EFFCDF800803B46324633
:100320002146284602F05AFFFEE700BF00ED00E03C
:10033000A88D02081EF0040F0CBFEFF30880EFF346
:1003400009807146144A10472DE9F041094C88464E
:1003500082B00546666BA76BA46A074802F0FAFEF6
:10036000CDF800803B4632462146284602F036FF53
:10037000FEE700BF00ED00E0B48D0208FEE700BF1D
:10038000FEE700BFFEE700BF70470000C90102089A
:10039000B502020801030208490302080000000038
:1003A000000000000000000000000000000000004D
:1003B000000000000000000000000000000000003D
:1003C000000000000000000000000000000000002D
:1003D000084B10B51B6804460748A0FB0330800992
:1003E00000F0CEFA214600224FF0FF3000F082FAF2
:1003F000002010BD0C010020D34D6210074A0320DD
:1004000008B5136843F40073136000F05FFA00202E
:10041000FFF7DEFF07F040FC002008BD003C024073
:10042000024A136801331360704700BF4C0200207A
:10043000014B1868704700BF4C02002010B582B015
:100440000190FFF7F5FF0446FFF7F2FF019B001B49
:100450009842F9D302B010BD002800F0A480F8B58E
:10046000036C04463BB1236CDB060CD50023012052
:1004700084F83C30F8BD436480F83C3007F054FC0D
:10048000236CDB06F2D4236C484A49491A4023689E
:10049000484D42F0020222644A6822F440324A6027
:1004A0004868626802434A605E68276926F480767D
:1004B000A168E2685E605868A66A40EA0720AE421A
:1004C0005860586820F040705860586841EA000150
:1004D0005960996821F400619960996842EA0102C3
:1004E0009A6048D09968E26A21F0706199609968D1
:1004F0000E439E60996821F04051996099680A43C3
:100500009A609968A56921F00201206A99609A6849
:1005100042EA45029A60002836D15A6822F4006205
:100520005A60D86A0026E56920F47000D4F830E0FB
:1005300067696A1ED8623046DD6A45EA0255DD62A7
:100540009D6825F400759D60996841EA4E21996087
:10055000996821F4806199609A6842EA87229A60DA
:100560006664236C23F0030343F001032364002338
:1005700084F83C30F8BD9A6822F070629A609A68FC
:1005800022F040529A60BCE75868626A40F400600A
:10059000511E58605A6822F460425A605A6842EA12
:1005A00041325A60BDE70120704700BFFDEEFFFFFA
:1005B000002301400100000F90F83C30F0B5012B02
:1005C00083B04FF00004019466D005680124AB6845
:1005D00080F83C40DF0714D4384B394E1C68AB68B8
:1005E000A6FB046443F00103A40CAB6004EB4404D9
:1005F0000194019B2BB1019C013C0194019C002CB6
:10060000F9D1AB68DE0744D5036C2E4C1C4044F492
:10061000807404646B685C0505D5036C23F4405357
:1006200043F480530364036C13F4805337D1436461
:10063000134606460A460021846B6FF0220786F8AF
:100640003C1021482149DFF890E0E0632046216416
:1006500005F14C01C4F84CE02F606C6844F08064F4
:100660006C60AC6844F48074AC6000F051FA184BD4
:100670005B68DB0609D13368986810F0405008D1F8
:100680009A6842F080429A6004E03268114B9A42C4
:100690000AD0002003B0F0BD022003B0F0BD436CCF
:1006A00023F006034364C3E7936813F04050F0D18E
:1006B000936843F080439360ECE700BF0C01002097
:1006C00083DE1B43FEF8FFFFDD0602083D0702083C
:1006D00000230140002001404D070208836B1A6C83
:1006E00012F0500F22D11A6C196842F4007210B542
:1006F0001A648A6812F0405F14D19A6992B9CA6A82
:1007000012F4700F15D14A6822F020024A601A6C68
:1007100022F480721A641A6CD20403D41A6C42F068
:1007200001021A64184606F039FE10BD9B6BDB6CA3
:1007300018478A685005F5D4E5E700BF08B5806B17
:1007400006F0F6FE08BD00BF704700BF08B54022A6
:10075000836B1A6418465A6C42F004025A64FFF71D
:10076000F3FF08BD90F83C300022F0B5012B83B0B8
:1007700001925DD00E680123092E80F83C302BD801
:10078000056806EB46024FF0070E8B682C6937466A
:100790000EFA02FE03FA02F224EA0E032B612B6921
:1007A00013432B614B68062B30D803EB83031F22C6
:1007B000696B053B9A4007FA03F321EA02026A6378
:1007C0006A6B13436B633D4B9D4243D0002380F81B
:1007D0003C30184603B0F0BDB7B205680722DFF819
:1007E000E0E007EB4703EC687645A3F11E0302FA4D
:1007F00003F224EA0202EA6054D08C68EA6804FA40
:1008000003F31343EB604B68062BCED90C2B12D8A5
:1008100003EB83041F232A6BA4F123018B4007FA07
:1008200001F122EA03032B632B6B19432963CAE707
:10083000022003B0F0BD03EB83021F24E96A413AB2
:10084000944007FA02F321EA0402EA62EF6A3B43AA
:10085000EB62B8E7122E2BD0194B9E4201D0112E1D
:10086000B4D1184A164953688E4243F400035360CA
:10087000ACD102F14672144B02F52E321B6802F223
:100880008332A2FB03239B0C03EB83035B000193E6
:10089000019B002B9AD0019B013B0193019B002BF4
:1008A000F9D193E7EB688A6843EA0263EB6079E782
:1008B000044A536843F48003536087E700200140F3
:1008C00012000010002301400C01002007494FF6E0
:1008D000FF020002064B10B4CC6800F4E060224036
:1008E0005DF8044B13430343CB60704700ED00E019
:1008F0000000FA05194BDB68C3F3022330B4C3F1DF
:1009000007051C1D042D28BF0425062C19D9033BFF
:1009100001249C40013C22400124002804FA05F4F3
:1009200004F1FF3401EA040101FA03F342EA03028D
:100930000ADB12010A4BD2B2034483F8002330BC15
:10094000704700221346E7E700F00F001201054B45
:10095000D2B203441A7630BC704700BF00ED00E00D
:1009600000E100E0FCEC00E000F01F010123034A7D
:1009700040098B4042F82030704700BF00E100E0A2
:100980000138B0F1807F0DD2074B0022072130B42F
:10099000F025064C5860104684F823509A60196080
:1009A00030BC70470120704710E000E000ED00E02F
:1009B000044A042813680CBF43F0040323F0040323
:1009C0001360704710E000E0704700BF08B5FFF704
:1009D000FBFF08BDF8B50446FFF72AFD002C76D0D2
:1009E000022223680021054684F835201A6884F81D
:1009F000341022F001021A6005E0FFF719FD401BD8
:100A000005283DD823681A68D107F6D4A26865681E
:100A1000E0681543226961692843A6691F6802439B
:100A2000E569206A1143364A31433A40676A0D430B
:100A3000042F40EA050042EA000228D01A605A69F1
:100A400022F0070247EA0201DAB22E4D5961103A4C
:100A50002D48A5FB0212002101251209805C032A02
:100A60002A4AE06502EA03024FF03F0388BF0432DE
:100A700083400846A2659360616584F83550F8BDEF
:100A8000032320221846626584F83530F8BDE06AF9
:100A9000216BA56A014345F004070A431A605A69AD
:100AA00022F0070247EA02010028CDD08EB1B6F548
:100AB000005F18D0022D03D9032DC5D1C201C3D5C3
:100AC000012340221846626584F83530F8BD0120C4
:100AD000F8BD012D03D0F1D3022DB5D1EEE7B0F171
:100AE000C07FB1D1ECE7032DAED801A252F825F0BA
:100AF000C10A0208BD0A0208C10A0208DF0A020888
:100B00003F8010F0ABAAAAAA748C020800FCFFFF79
:100B1000F0B490F83440012C0ED0012590F8354007
:100B2000866DAC4280F834500AD00022022380F84F
:100B300034201846F0BC70470223F0BC18467047BA
:100B400004680227002580F83570456587682568A8
:100B5000402F25F480252560636019D0A160E260F4
:100B6000C16D3F23026C8B40B360236843F01603D2
:100B70002360636943F0800363611AB1236843F023
:100B8000080323602268002342F001022260D0E7BC
:100B9000A260E160E4E700BFF0B5044683B0002046
:100BA0000822A76DE36D01909A403D6860491542A7
:100BB0000E6803D021680868400776D45D4A9A40E1
:100BC000154203D021684969080668D45A4A9A40F8
:100BD000154203D02168096889075AD410229A4027
:100BE000154203D02168086800073FD420229A40AC
:100BF000154203D021680868C00625D4636D0BB385
:100C0000636DDA071AD5052321684C4A84F835301C
:100C1000A2FB06320B6823F00103920A0B6002E08C
:100C20000B68DB0704D5019B01339A420193F7D28D
:100C30000022012384F8342084F83530E36C0BB1B2
:100C40002046984703B0F0BDBA6094F83520052AD5
:100C50003BD00B6813F4802F0B6854D019035FD579
:100C6000E36B002BCAD020469847C7E7BA600A68F2
:100C700012F4802F0A6822D1D20503D40A6822F028
:100C800008020A60226C002AB0D020469047E36D2B
:100C9000ACE7BA60626D42F0040262659EE7BA603A
:100CA000626D42F00202626590E7086820F004007D
:100CB0000860BA60626D42F0010262657EE711036E
:100CC000E0D5A26C002AE0D190E70A68206C22F0FF
:100CD00016020A604A6922F080024A6120B30A685B
:100CE00022F008020A603F2200250120216D02FA4D
:100CF00003F3BB6084F8345084F835000029A1D098
:100D0000204688479EE713F48073A9D10A68012022
:100D100022F010020A6084F8343084F835009FE72E
:100D2000636C002B9FD169E7A26C002AD7D1DAE768
:100D30000C0100200100800004008000B5814E1BE2
:100D40002DE9F84F7E4F3C7D012C02D10220BDE8F9
:100D5000F88F9B469146002301228A4680463A75C9
:100D60004CF25036BB61FFF763FB764C054604E05E
:100D7000FFF75EFB401BB0424BD8E368714AD903D2
:100D8000F6D4D36813F0F20FD36849D1D90701D54F
:100D90000123D360B8F1030F16D8DFE808F0920200
:100DA000806C684B1FFA89F91A6922F440721A6143
:100DB0001A6942F480721A611A6942F001021A61DA
:100DC000AAF80090BFF34F8F00235E4C4CF25036D0
:100DD000BB61FFF72DFB054604E0FFF729FB401B35
:100DE000B0421BD8E368574ADB03F6D4D068D36817
:100DF00010F0F20079D113F0010374D00123D36015
:100E0000504A136923F00103136100233B75BDE8C9
:100E1000F88F002303203B75BDE8F88F0320EFE730
:100E20009B0703D5BB6943F02003BB61454BDB68DF
:100E3000DE0603D5BB6943F01003BB61414BDB68A1
:100E40009D0603D5BB6943F00803BB613D4BDB68DE
:100E50005C0603D5BB6943F00403BB61394BDB6817
:100E6000180603D5BB6943F00203BB61354BF22280
:100E70000120DA60C9E7334B1A6922F440721A6123
:100E80001A6942F440721A611A6942F001021A6149
:100E9000CAF80090CAF804B0BFF34F8F94E7294B0B
:100EA0001A6922F440721A611A6942F400721A61D6
:100EB0001A6942F001021A61CAF80090BFF34F8F1D
:100EC00082E7204B5FFA89F91A6922F440721A61AD
:100ED0001A691A611A6942F001021A618AF80090CF
:100EE000BFF34F8F70E718468AE79C0703D5BB69AD
:100EF00043F02003BB61134BDB68D80603D5BB6905
:100F000043F01003BB610F4BDB68990603D5BB6947
:100F100043F00803BB610B4BDB685A0603D5BB6982
:100F200043F00403BB61074BDB681B0603D5BB69B9
:100F300043F00203BB61034BF2220120DA605FE75A
:100F400050020020003C0240054B1A69002A01DBD8
:100F50000120704703490020034A59605A607047D6
:100F6000003C024023016745AB89EFCD034A0020D6
:100F7000136943F000431361704700BF003C024017
:100F8000054B5A69D20705D504490020044A9960E7
:100F90009A60704701207047003C02403B2A1908C4
:100FA0007F6E5D4CF8B5294B0021294F4CF250362D
:100FB0005A691C4642F002025A61B961FFF738FAD9
:100FC000054604E0FFF734FA401BB0420ED8E36850
:100FD0001E4ADB03F6D4D068D36810F0F20007D1C4
:100FE00013F001032FD00123D360F8BD0320F8BD17
:100FF0009C0703D5BB6943F02003BB61134BDB683F
:10100000D80603D5BB6943F01003BB610F4BDB6807
:10101000990603D5BB6943F00803BB610B4BDB6842
:101020005A0603D5BB6943F00403BB61074BDB6879
:101030001B0603D5BB6943F00203BB61034BF222DD
:101040000120DA60F8BD1846F8BD00BF003C024040
:1010500050020020F8B50023284D0446284EAB610D
:10106000FFF7E6F90746601C0FD1254AD368D9037C
:10107000FCD4234AD36813F0F200D36812D113F0E2
:1010800001030DD00123D360F8BDF368DB03F0D575
:1010900024B1FFF7CDF9C01B8442E4D20320F8BD90
:1010A0001846F8BD9C0703D5AB6943F02003AB613C
:1010B000134BDB68D80603D5AB6943F01003AB6173
:1010C0000F4BDB68990603D5AB6943F00803AB61AE
:1010D0000B4BDB685A0603D5AB6943F00403AB61E5
:1010E000074BDB681B0603D5AB6943F00203AB611A
:1010F000034BF2220120DA60F8BD00BF500200204D
:10110000003C0240F8B53F4D2B7D012B28D0044612
:10111000012023682875DA070DD56368A668834225
:101120004CF250305BD0FFF795FF18B9364A53693F
:101130003343536123689F072DD45E0712D41907E8
:1011400007D531490020267C4A6922F00C0232433F
:101150004A61DA062CD49B0633D400232B75F8BDE4
:101160000220F8BD4CF250306669FFF773FF70B98A
:10117000254906F0F00E06F00042244B4F6906F0B8
:1011800080464EEA02023B4016431E434E612368EE
:101190001907DED5D5E74CF25030E668FFF75AFF65
:1011A00010B9F6B21A4B1E7023685E07C7D5D9E78F
:1011B0004CF25030A669FFF74DFFD8B123689B066B
:1011C000CBD54CF25030E469FFF744FF0028C4D17E
:1011D0000D4A93699BB243EA04439361BDE7FFF76D
:1011E00039FF0028A6D1084A536923EA0603536150
:1011F0002368A0E7044A074B91690B401E439661A0
:10120000DCE700BF50020020003C02400FFFFF3F20
:10121000153C02400000FFFF3F22104B02605B695B
:101220000F4A03F47F0383601378DBB2AA2B04D048
:101230001378CC2B14BF5523CC23084AC360094B29
:1012400051690B404361536903F00C0303619369D7
:101250009BB2836193691B0CC3617047003C0240E1
:10126000153C0240F00000C039B101291ED002290E
:101270000CBF4FF400714FF440710E4B1A6922F409
:1012800040721A611A69114319611A6922F0F80251
:101290001A611A6942F0020242EAC00018611A6932
:1012A00042F480321A61BFF34F8F70474FF4807160
:1012B000E3E700BF003C02402DE9F04FD1F800C049
:1012C00083B00026DFF81882DFF81892DFF818E202
:1012D00003E00136102E00F0B1800123B34033EA61
:1012E0000C02F6D14C6824F01005022D40F0A980C4
:1012F000F50806F0070A4FF00F0B0A6900EB8505A9
:101300004FEA8A0A2F6A0BFA0AFB02FA0AF24FEA3C
:10131000460A27EA0B074FF0030B3A430BFA0AFB86
:1013200004F003072A626FEA0B02056807FA0AF75E
:1013300015403D4305608568C4F3001BCF68154028
:101340000BFA06FB07FA0AF72F438760456825EA80
:1013500003054BEA05054560C7688D683A40E7001C
:1013600005FA0AF542EA0502C260B2D5D8F844701F
:1013700006F0030226F0030B524D47F4804A920018
:101380000F275D44C8F844A04845D8F844A007FAA0
:1013900002FB0AF480470197019FAF6827EA0B0B15
:1013A00065D0494FB84264D0484FB84266D0484FE4
:1013B000B84268D0474FB8426AD0474FB8426CD065
:1013C000464FB8426ED0DFF824A150456FD0DFF809
:1013D00020A1504570D0DFF81CA150450CBF4FF044
:1013E000090A4FF00A0A0AFA02F242EA0B02DF4344
:1013F0000136AA60E503DEF800204CBF1A433A40EC
:10140000A503CEF80020DEF804204CBF1A433A4072
:10141000E502CEF80420DEF808204CBF1A433A401B
:10142000A402CEF80820DEF80C2054BF07EA02031D
:101430001343102ECEF80C307FF44FAF03B0BDE84D
:10144000F08F4FEA460A03220768013D04EA020BC7
:1014500002FA0AF2012D6FEA02020BFA0AFB07EA0E
:1014600002074BEA070707603FF676AF63E7002203
:10147000BBE74FF0010A0AFA02F2B6E74FF0020AA0
:101480000AFA02F2B1E74FF0030A0AFA02F2ACE7F5
:101490004FF0040A0AFA02F2A7E74FF0050A0AFA27
:1014A00002F2A2E74FF0060A0AFA02F29DE74FF0B5
:1014B000070A0AFA02F298E74FF0080A0AFA02F25B
:1014C00093E700BF003801400004024000080240DA
:1014D000000C0240001002400014024000180240BC
:1014E0000038024000000240003C0140001C024065
:1014F000002002400024024002B9090481617047C3
:1015000070B504460D4616466B1C226828D19369B7
:10151000980728D49369D906F9D593699D06FCD517
:1015200020231021D161D3619369980701D500234D
:1015300093629369D90703D4936943F001039361DC
:10154000566800211E4B04252020334053606564FB
:1015500084F8401084F84100012084F8421070BDE6
:1015600093699B0701D5002070BD9369D90619D4F2
:1015700025B1FEF75DFF801B8542C5D2636C20213B
:10158000002203200B4384F84020636484F8411058
:1015900084F8422070BD4DB1FEF74AFF801B8542A2
:1015A00004D3226893699B06F5D5B9E7002320226E
:1015B000012084F8412084F8403084F8423070BD26
:1015C00000E800FE70B5044616460D4629B93BE01A
:1015D000FEF72EFF801B85423DD322689369980653
:1015E00046D49369D906F3D5681C22D1936999062C
:1015F000FCD520231021D161D3619369980701D5CF
:10160000002393629369D90703D4936943F00103DC
:101610009361566800211D4B042520203340536000
:10162000656484F8401084F84100012084F8421079
:1016300070BD93699B06DCD4E5B1FEF7F9FE801B13
:10164000854217D32268CFE7026893699B061BD4B3
:101650009369DB06C8D4636C2021002203200B436E
:1016600084F84020636484F8411084F8422070BDFF
:10167000002070BD00232022012084F8412084F83E
:10168000403084F8423070BD084670BD00E800FE6E
:10169000002850D0F8B590F84130044603F0FF021E
:1016A000002B3FD023682421626884F84110196818
:1016B00022F07062E06821F00101012819601A61CE
:1016C0009A6822F400429A60A26830D042F4044240
:1016D00002289A6022D05A680021184D20272669D6
:1016E000084615436269D4F81CE05D603243A56981
:1016F000DE6842EA0522256A26F400464EEA050520
:10170000DE60DA601D601A6842F001021A606164EE
:1017100084F84170216384F84210F8BD4FF40062F0
:101720005A60D8E780F8402006F08AFBBAE742F416
:1017300000429A60CFE70120704700BF008000029E
:101740002DE9F04190F84140202C02D00220BDE864
:10175000F08190F84040012CF8D01F4601239046BC
:101760000E4680F840300446FEF762FE054604E06F
:10177000FEF75EFE401B192864D82368986900F4C0
:1017800000400028F4D1102200212120C4F8248038
:10179000616384F8410084F8422061646785628D4A
:1017A00092B2FF2A6ED95F68C6F309064749FF2047
:1017B000474A394020850A4332435A60FF27638DE8
:1017C0002A46069920469BB2002B6BD0FFF798FE65
:1017D000002850D1626A2168501C238D6062013B51
:1017E00012789BB28A62628D2385013A92B2628539
:1017F000002BE4D1638D9BB2002BE0D0069B01331C
:1018000011D18B6903F08003002BFAD0638D9BB25A
:10181000FF2B22D948682D4A2E4B024027851343BF
:1018200033434B60CBE78B6903F08003002BEDD192
:10183000069B3BB1FEF7FCFD069B401B834201D398
:101840002168DCE700232022032084F8412084F86B
:10185000403084F84230BDE8F081628D1B4B48680F
:1018600092B20340D0B2228543F0007343EA0043B2
:1018700033434B60A3E7636C042B0CBF01200320B0
:10188000BDE8F081618DC6F309065F680F4889B233
:10189000114A3840CFB22185024342EA074232431F
:1018A0005A608BE7FFF78EFE0028E4D123682021E1
:1018B0000A4AD9615D682A405A6084F8411084F868
:1018C000400084F84200BDE8F08100BF009800FCB1
:1018D0000020FF010000FF010020000200E800FEE0
:1018E00090F84130DBB2202B01D002207047024635
:1018F00090F840000128F8D0242070B41468002625
:1019000082F841002568304625F0010525602568EC
:1019100025F480552560256829432160216841F020
:101920000101216082F8406082F8413070BC70474C
:101930001B4A1C4B116C41F0805130B5116483B0CF
:10194000126C1C4602F080520192019A1A6842F40D
:1019500080321A60FEF76CFD054605E0FEF768FD73
:10196000401BB0F57A7F18D863680E4AD903F5D5C5
:101970001368144643F400331360FEF759FD05461F
:1019800005E0FEF755FD401BB0F57A7F05D863688A
:101990009B03F6D5002003B030BD032003B030BD5B
:1019A0000038024000700040002800F032810368D7
:1019B0002DE9F041DD0782B0044630D5AB498A6895
:1019C00002F00C02042A00F01A818A6802F00C026C
:1019D000082A00F010816368B3F5803F00F054815D
:1019E000002B00F0DC80B3F5A02FA04B1A6800F0AC
:1019F000A88122F480321A601A6822F480221A60C8
:101A0000FEF716FD994D064605E0FEF711FD801B19
:101A1000642800F2EC802B689A03F6D523689F07B0
:101A20002AD5924A916811F00C0F00F083809168DA
:101A300001F00C0108297AD0E368002B00F00C813A
:101A40008A4B1A681D4642F001021A60FEF7F0FC4C
:101A5000064605E0FEF7ECFC801B022800F2C7807A
:101A60002B68824A9807F5D51368216923F0F8039B
:101A700043EAC103136023681A071FD45D0736D5F4
:101A80007A4B1A6CD00073D50025794B1A68D105B2
:101A900040F19C80A368012B00F0FC80002B00F03B
:101AA000BA80052B714B1A6F00F00D8122F00102F4
:101AB0001A671A6F22F004021A67F0E06369002BBC
:101AC00043D06A4B5A6F1D4642F001025A67FEF737
:101AD000AFFC064605E0FEF7ABFC801B022800F2D7
:101AE00086806B6F9B07F6D523685D07C8D4A26913
:101AF000CAB15E4B996801F00C01082921D0022A75
:101B00001A6800F0E88022F080721C461A60FEF726
:101B10008FFC054604E0FEF78BFC401B022866D8CC
:101B200023689B01F7D4002002B0BDE8F081526821
:101B3000560281D44D4A1268950724D5E268012ADD
:101B400021D0012002B0BDE8F081484B5A6F1D46FC
:101B500022F001025A67FEF76BFC064604E0FEF72E
:101B600067FC801B022842D86B6F9F07F7D4BBE746
:101B70001A6C012542F080521A641B6C03F08053EA
:101B80000193019B81E7394920690A6822F0F80234
:101B900042EAC0020A601A077FF570AF8EE7334B46
:101BA0001A681D4622F480321A601A6822F48022D4
:101BB0001A60FEF73DFC064604E0FEF739FC801B88
:101BC000642814D82B689B03F7D427E71A681E46AD
:101BD00042F480721A60FEF72BFC07463368DA0580
:101BE0003FF558AFFEF724FCC01B6428F6D903204C
:101BF00002B0BDE8F0814A6850027FF5ECAE1B4AA6
:101C0000126891037FF50BAF6268002A7FF407AF7B
:101C100097E701207047154B41F288381A6F1E462E
:101C200022F001021A671A6F22F004021A67FEF707
:101C3000FFFB074604E0FEF7FBFBC01B4045D6D880
:101C4000336F9807F7D4002D3FF451AF074A136C58
:101C500023F0805313644AE7044B1A681D4622F0B0
:101C600001021A60FEF7E4FB064608E00038024075
:101C700000700040FEF7DCFB801B0228B7D82B6801
:101C80009907F7D42368F7E6324A136843F48033A0
:101C90001360B5E62F4A136F43F001031367FEF795
:101CA000C7FB2C4E804641F2883705E0FEF7C0FBAB
:101CB000C8EB0000B8429AD8336F9B07F6D5002DC9
:101CC0003FF415AFC2E742F004021A671A6F42F000
:101CD00001021A67E3E722F080721D461A60FEF7E0
:101CE000A7FB064605E0FEF7A3FB801B02283FF694
:101CF0007EAF2B68174A9901F5D4236A1546E1692E
:101D0000666A1943A06AE36A41F00051400841EA5B
:101D10008611013841EA036343EA004353601368C4
:101D200043F080731360FEF783FB044605E0FEF783
:101D30007FFB001B02283FF65AAF2B689A01F6D5AD
:101D4000F1E642F480221A601A6842F480321A6086
:101D500056E600BF003802402DE9F04178B1554AFF
:101D6000136803F00F038B420CD2136823F00F03A8
:101D70000B431360136803F00F03994202D0012054
:101D8000BDE8F08103689A0706D54B4D8268AC68C0
:101D900024F0F0042243AA60DB0704460D4621D557
:101DA0004368454A012B126877D0022B6DD090070B
:101DB000E5D5414A41F288389168164621F0030181
:101DC0000B439360FEF734FB074604E0FEF730FB5D
:101DD000C01B40455ED8B368626803F00C03B3EBE8
:101DE000820FF3D1334A136803F00F039D4209D2E7
:101DF000136823F00F032B431360136803F00F03E2
:101E00009D42BCD12368590706D52B48E2688168FA
:101E100021F4E0510A4382601A0707D5264A216956
:101E2000936823F4604343EAC1039360224CA368A0
:101E300003F00C03042B18D0082B29D161686368C8
:101E400001F03F025B022BD41C496368B1FBF2F145
:101E5000C3F3881301FB03F2174B5B68C3F3014321
:101E600001335B00B2FBF3F300E0154B124A002094
:101E7000144C92681449C2F30312A25CD3400B6065
:101E8000FEF7A6FA0020BDE8F081960191D476E72E
:101E90000A4BEBE70320BDE8F081970389D46EE796
:101EA00007486368B0FBF2F1C3F3881301FB03F248
:101EB000D2E700BF003C0240003802400024F4009A
:101EC00040787D01C4BD02080C010020014B186858
:101ED000704700BF0C01002003682DE9F04313F0A8
:101EE000010683B004460BD0B94A916821F4000181
:101EF0009160466B91683143B6FA86F67609916037
:101F000013F4002510D0B249E56BD1F88C20B5F55B
:101F1000801F22F4401242EA0502C1F88C2000F032
:101F2000A381B5FA85F56D09D90210D5A848216CB1
:101F3000D0F88C20B1F5800F22F4400242EA010271
:101F4000C0F88C2000F08E81002908BF012513F015
:101F5000807F18BF01269A0600F13C81D9060CD576
:101F60009B4AD2F88C1021F08071C2F88C10D2F804
:101F70008C00A16B0143C2F88C105A0408D5944818
:101F8000626ED0F8901021F440310A43C0F89020DE
:101F90001F0408D58E48A26ED0F8901021F440217D
:101FA0000A43C0F89020D80308D58948E26ED0F8DB
:101FB000901021F440110A43C0F89020990308D5ED
:101FC0008348226FD0F8901021F440010A43C0F8F2
:101FD00090205A0608D57E48626CD0F8901021F007
:101FE00003010A43C0F890201F0608D57848A26C68
:101FF000D0F8901021F00C010A43C0F89020D805C9
:1020000008D57348E26CD0F8901021F030010A43F3
:10201000C0F89020990508D56D48226DD0F8901031
:1020200021F0C0010A43C0F890205A0508D568483D
:10203000626DD0F8901021F440710A43C0F89020EE
:102040001F0508D56248A26DD0F8901021F44061B8
:102050000A43C0F89020D80408D55D48E26DD0F856
:10206000901021F440510A43C0F89020990408D5FB
:102070005748226ED0F8901021F440410A43C0F82E
:1020800090205A0208D55248A26FD0F8901021F043
:1020900080610A43C0F890209F020CD54C48E26F43
:1020A000D0F89010B2F1006F21F0006108BF012557
:1020B0000A43C0F8902013F0080F18BF01255803F9
:1020C00008D54348626FD0F8901021F040710A4360
:1020D000C0F8902019020BD4B3F1007F16D0F2079C
:1020E00014D4012D00F0C380002003B0BDE8F083BC
:1020F0003748B3F1007FD4F88020D0F8901021F059
:10210000805142EA0102C0F89020E8D1304B1A68B1
:102110001E4622F080621A60FEF78AF9074604E044
:10212000FEF786F9C01B64284DD83368284A1B0186
:10213000F6D42368DF0703D5616B002900F0018125
:102140001E0304D5E26BB2F5801F00F02581D80292
:1021500004D5226CB2F5800F00F01E81D90111D593
:102160001B4F2269D7F8840066681204D7F88410E0
:1021700000F0706042EA861201F0E04102430A4337
:10218000C7F884209A010DD5236961681A04E368B1
:10219000A06842EA81120E4942EA036343EA0073EF
:1021A000C1F884300A4B1A681E4642F080621A60F9
:1021B000FEF73EF9074633681B0192D4FEF738F963
:1021C000C01B6428F7D9032003B0BDE8F08300BF2B
:1021D000003802408C4A8D4B116C1F4641F08051F3
:1021E0001164126C02F080520192019A1A6842F452
:1021F00080721A60FEF71CF9804605E0FEF718F9B8
:10220000C8EB00006428DED83B68DB05F6D57E4BC2
:102210001A6F12F44071226B02F4407011D08142A7
:102220000FD0196F1F6F21F4407147F480371F677B
:102230001F6F27F480371F671967196FCF0700F1E9
:102240009680B0F5407F00F0C3806F498B6823F41F
:10225000F8138B606C49C2F30B020B6F1A430A67C9
:1022600023687BE6012672E6002501265CE6664BC4
:102270001A681D4622F080521A60FEF7D9F8064609
:1022800004E0FEF7D5F8801B64289CD82B689F00DB
:10229000F7D423681D0366D4D8021DD5226CDAB9A1
:1022A000594AA169D2F8880066690D0600F44030E9
:1022B000D2F8881045EA861501F0E0412843014331
:1022C000C2F88810D2F88C10A06A21F4F8510138B5
:1022D00041EA0021C2F88C10990203D5E26FB2F1F5
:1022E000006F7ED01A0719D5474BE169D3F88820D3
:1022F00065690807D3F8881002F0706240EA85101B
:1023000001F4403101430A43C3F88820D3F88C100C
:10231000E26A21F440310A43C3F88C203A4B1A6830
:102320001C4642F080521A60FEF782F80546236888
:102330009B003FF5D9AEFEF77BF8401B6428F6D929
:1023400041E7A168D2F8840066680F0700F44030C6
:10235000D2F8841047EA861601F0706130430143D9
:10236000C2F88410ECE6E26B002A99D094E71F468D
:1023700041F28838FEF75CF8814606E0FEF758F82F
:10238000C9EB000040453FF61EAF3B6F9807F5D5FF
:10239000226B02F4407054E71B4AE168D2F88400D3
:1023A00066680F0600F44030D2F8841047EA8616BB
:1023B00001F0E04130430143C2F88410D2F88C10A0
:1023C000606A21F01F0101380143C2F88C10C5E694
:1023D0000D480F4B8168134021F4F8110B438360C3
:1023E00038E7094D226AD5F8881010046669D5F8D7
:1023F000882001F0706140EA861002F0E04201435B
:102400000A43C5F888206DE700380240007000409C
:10241000FFFCFF0FB0F5002F10D0B0F5801F0BD1DF
:102420002E4AD2F88C3003F44003B3F5800F33D03A
:10243000B3F5000F0DD073B100207047274AD2F8D2
:102440008C3003F44013B3F5801F25D0B3F5001F83
:10245000F1D123487047536813F4800F536808BFC5
:10246000204903F03F0318BF1F49B1FBF3F21B499A
:10247000D1F88800D1F88830C0F30360D1F88C100F
:10248000C3F38813C1F3042102FB03F34A1CB3FB1B
:10249000F0F3B3FBF2F07047536813F4800F536806
:1024A00008BF104903F03F0318BF0F49B1FBF3F217
:1024B0000A49D1F88400D1F88430C0F30360D1F820
:1024C0008C10C3F3881301F01F0102FB03F34A1CB5
:1024D000B3FBF0F3B3FBF2F0704700BF00380240EB
:1024E0000080BB000024F40040787D01E8B138B5DD
:1024F000037A0446012B12D00122437A027203F0C0
:10250000FF0273B1216802230022012563720B6868
:10251000104643F004030B606572227238BD02203E
:1025200038BD027205F0F6FCECE70120704700BFF1
:102530002DE9F843042904D8DFE801F02B2B2B0602
:1025400006000120BDE8F883456800244FF40037F9
:102550004FF4802635F002054FF6FF75C3650CBFBA
:102560004FF0010EA6460429046384630CBF0121C9
:102570000D218464C0F83CE04465C76406650566C7
:102580004164032ADDD8DFE812F00B0112011801C3
:102590002D00456800244FF48036C36535F00205F0
:1025A00004634FF6FF75846314BF01272746446513
:1025B00013F00104C76386640566C2D14D1E012D68
:1025C0000BD84FF400350465C564032AB9D8DFE899
:1025D00012F0260116010501FB004FF48025C464AA
:1025E0000565F2E75B01E0218022036441638265B7
:1025F0000028A6D090F87D30044603F0FF02002B9F
:1026000000F032819E4B022122681B689D4884F8AD
:102610007D10A0FB030311681B0B21F480319B008C
:10262000116002E01168CE0308D513F1FF33F9D22F
:10263000D4F8803043F04003C4F88030E368012BC5
:1026400000F00F81022B0BBF21200120202100214F
:10265000A368022B00F00281032B00F0FE80012B07
:102660000CBF4FF480650025874B9A4200F0EA804A
:102670008648101AB0FA80F04009002840F0E28045
:10268000834B1960E369002B00F0DA80814B9A429A
:1026900000F0EF8020339A4200F0EB8000EB8000E6
:1026A000E3697D4940005B02B0FBF3F3A1FB03014A
:1026B000C90801EB81002162A3EB4003092B01D182
:1026C00001312162676837F00203E36B40F0B180AB
:1026D000012B14BF4FF4007C4FF0000C16684FF232
:1026E00020036E484FF0000ED4F818803040266B5F
:1026F000D4F82C90106010680743606B3743A66BCA
:102700000743606A37432669074360693E43644F65
:102710003043644E0543A06A45EA0151A56C41EA85
:102720000C01D4F840C0116051680F40216D576012
:10273000576847EA0807D4F844800743E06C08F17B
:10274000FF3847EA090757600CF1FF37D2F808C095
:102750000CEA0606D4F860C0966096680E43616D78
:102760002E43A56D064346EA0700012740EA0826E6
:1027700070469660D6683340D360D368E66D0B43ED
:10278000013E43EA050141EA0C4343EA0623D360D4
:10279000C4F880E084F87CE084F87D70BDE8F883BC
:1027A0001B018021402203644163826520E780226F
:1027B0005B014263036482651AE75B01C0218022EA
:1027C00003644163826513E75B08E02480219A017A
:1027D00044635B0181650264436409E75B08C025CB
:1027E000802402294FEA831245634FEA431384652C
:1027F000026443647FF4FCAE08234365F8E65B089B
:10280000802202294FEA831442634FEA4313826510
:10281000046443647FF4ECAE10234365EAE65B088E
:10282000802440215A0144631B0181650264436492
:10283000DEE6012B14BF4FF0000C4FF4007C4DE797
:10284000216A3FE7184B1960E369002BF8D04FF479
:102850000020FFF7DFFD226818E701464FF400650E
:1028600002E711201021F3E680F87C2005F068FBD8
:10287000C8E64FF48010FFF7CDFD22680EE700BFD9
:102880000C0100201BECCB9504580140245801405A
:10289000005C0140045C0140CDCCCCCC10C005FFF5
:1028A000F01FFFFF0080F8FF0058014059B1F8B554
:1028B000B2FA82F4640944B990F87D50EDB2012D6A
:1028C00005D00220F8BD012070470120F8BD90F826
:1028D0007C60012EF5D006464FF0120EC76E1346EF
:1028E000C0F8804080F87C507166A0F86820A0F89D
:1028F0006A20384686F87DE01C4ADFF874E0FA6307
:10290000C7F840E03268DFF86CE03C651C32C7F87D
:102910004CE0FEF7FDF8E0B933681A68D20303D43F
:102920001A6842F480321A60326B7168082A14D037
:102930000522612702391D690024012998BF3A4602
:102940002A431A611A6842F400321A6086F87C4001
:10295000F8BD86F87C402846F8BD21F00202012A25
:102960000BBF1522052271276127E3E74D2A0208D4
:10297000AD2A02082D2B020859B1F8B5B2FA82F43B
:10298000640944B990F87D50EDB2012D05D00220C4
:10299000F8BD012070470120F8BD90F87C30012B74
:1029A000F5D00746164622201346D7F870E00A46AF
:1029B00079662349C7F88040A7F86860A7F86A607D
:1029C00087F87D00704687F87C50DFF87CC01D4E8C
:1029D000CEF84C103968CEF85040CEF840C01C31CB
:1029E000CEF83C60FEF794F8E0B93B681A68D20371
:1029F00003D41A6842F480321A603A6B7968082A64
:102A000014D00522612602391D690024012998BFCE
:102A100032462A431A611A6842F400321A6087F873
:102A20007C40F8BD87F87C402846F8BD21F00202C2
:102A3000012A0BBF1522052271266126E3E700BF9C
:102A40002D2B0208BD2A0208212B02080368806B87
:102A50001B6813F4807370B518D10268046B116899
:102A6000082CA0F86A3021F400334168136010D0BC
:102A70006FF061066FF00503012402391569A14268
:102A800098BF33462B40136180F87D4003F076FFFA
:102A900070BD21F00203012B0BBF6FF071066FF0C8
:102AA00061066FF015036FF00503E5E708B5806B6D
:102AB00004F000F808BD00BF704700BF0368806BDA
:102AC0001B6813F4807370B518D10268046B116829
:102AD000082C21F400311160A0F86A30416810D050
:102AE0006FF061066FF00503012402391569A142F8
:102AF00098BF33462B40136180F87D40FFF7DCFF21
:102B000070BD21F00203012B0BBF6FF071066FF057
:102B100061066FF015036FF00503E5E7704700BF2E
:102B200008B5806BFFF7FAFF08BD00BF806BD0F8D7
:102B30008030C26E43F0800310B5C0F88030536D12
:102B4000012B06D0036F5B6D012B02D004F04EF811
:102B500010BD0168124B0A681B6822F40032114C48
:102B60000A60A4FB03430A681B0B22F480329B001B
:102B70000A6002E00A68D20308D513F1FF33F9D2E4
:102B8000D0F8803043F04003C0F8803001220023A9
:102B900080F87D20A0F86A3004F028F810BD00BF4E
:102BA0000C0100201BECCB95E8B138B590F82C3027
:102BB00004460D4603F0FF0283B10223211D206865
:102BC00084F82C3000F0E6F9294694E8050000F07E
:102BD0001DFA0123002084F82C3038BD80F82D2008
:102BE00005F066FAE9E70120704700BF38B590F8B4
:102BF0002C30DBB2022B01D1184638BD044602232B
:102C00000D46006884F82C3000F04EFA2B68002046
:102C1000022B0CBF0523012384F82C3038BD00BFE4
:102C2000002800F09780F8B590F83D30044603F096
:102C3000FF02002B00F0828023680221464AB3F194
:102C4000804F84F83D10C2EB030E1A68BEFA8EFE68
:102C50004FEA5E1E4FD0BEF1000F4CD13F49404FAE
:102C60008B4270D001F580618B426CD0DF1B3D49F7
:102C7000B7FA87F77F098B4214BF394647F0010145
:102C800061B1394922F07002A0688B4242EA000229
:102C90003AD0A1F580618B4236D03946314FBB42E4
:102CA00014BF0F4641F0010717F0FF0750D12F491D
:102CB0002F48834218BF8B420CBF0121002123D033
:102CC0002C4FA0F59630834218BFBB420CBF0127A2
:102CD00000273DD028498B4216D001F580618B42F8
:102CE00012D0A16922F08002E0680A4361681A608C
:102CF000D862996219E01A4F22F07002A168DF1BB6
:102D00000A43B7FA87F77F09216922F44072A06964
:102D10001143E668656821F0800101431960DE62B5
:102D20009D62BEF1000F06D12FB9012200205A6129
:102D300084F83D20F8BD62691A63F6E780F83C200C
:102D400004F0DAFF78E7DF1BB7FA87F77F0998E727
:102D50000F46D9E701207047000001400004004001
:102D600000040140000C0040000800400040014009
:102D70000044014000480140001C0040034602227C
:102D80000020196810B4012483F83D200A6822430A
:102D90000A6083F83D405DF8044B704703680020EB
:102DA000DA6842F00102DA601A6842F001021A6041
:102DB000704700BF704700BF704700BF704700BF3B
:102DC000704700BF03681A69910710B5044602D521
:102DD000DA68920765D41A69520702D5DA68500793
:102DE0004CD41A69110702D5DA68120734D41A696B
:102DF000D00602D5DA68D1061ED41A69D20702D5E8
:102E0000DA68D0076BD41A69110602D5DA6812069F
:102E10006DD41A69D00502D5DA6811066FD41A6923
:102E2000520602D5DA68500651D41A69910602D5C5
:102E3000DA68920643D410BD6FF0100108222046D4
:102E40001961DB69227713F4407F6CD0FFF7B4FF80
:102E5000002223682277D0E76FF008010422204681
:102E60001961DB6922779B075AD1FFF7A3FF204640
:102E7000FFF7A4FF002223682277B8E76FF0040170
:102E80000222204619619B69227713F4407F44D1C6
:102E9000FFF790FF2046FFF791FF0022236822777B
:102EA0009FE76FF00201012219619B690277990780
:102EB0002DD0FFF781FF0022236822778BE76FF088
:102EC000200220461A61BDE8104000F05FB86FF0A4
:102ED000400220461A61FFF773FF2368A5E76FF0F1
:102EE000010220461A6104F057FA23688BE76FF05D
:102EF000800220461A6100F04BF8236889E76FF0E2
:102F0000800220461A6100F043F8236887E7FFF744
:102F100051FF2046FFF752FFCDE7FFF74DFFBCE71B
:102F2000FFF74AFFA6E7FFF745FF2046FFF746FFFA
:102F30008EE700BF90F83C30012B70B41FD00368BF
:102F4000114C5A68A3429D6814D004F58064A342D2
:102F500010D00C680026896825F0800522F07002E8
:102F60002943224334465A60996080F83C602046E9
:102F700070BC704722F470024C682243E9E70224D7
:102F8000204670BC704700BF00000140704700BF82
:102F9000704700BF0B68012BF0B516D00A1D0C69F5
:102FA0008E6907682CCA1A434B692A43CD692243AC
:102FB0000C6A496A1A43144B32433B402A4322436A
:102FC0000A43134303600020F0BD8A684C68CB6855
:102FD00014430D690E6A1C43CF694B692C43026888
:102FE0008D693743D0F804E01C434E6A22F4F8415F
:102FF000054B2C4347EA06020EEA03030A43234328
:10300000026043600020F0BD0080FFFF012AF0B4A1
:1030100021D084680A6804F070454B68541E8F689C
:10302000013BCE682C43013F0D69721E44EA031434
:103030004E696B1E8D6944EA0721013E6C1E41EA10
:10304000023242EA034242EA065343EA0463F0BC16
:1030500083600020704783680C68C5684F68013C36
:103060004E6905F070457A1E0E4F2C43013E8D6867
:103070001F4044EA02140B696A1E3505CE68013B05
:10308000896944EA0222013E013942EA034345EAE2
:10309000063643EA01633E438660C3600020F0BC0D
:1030A000704700BFFF0F0FFF70B515460446C86894
:1030B00082B0002691E80C00019613438A6843EA27
:1030C0004023013A43EA42130193019B2361FDF738
:1030D000AFF906466B1C05D1A06910F02000FBD1AA
:1030E00002B070BDA36913F02000F9D025B1FDF73F
:1030F0009FF9801B8542EDD20320F1E708B500F06F
:103100005BF800BF0C4A08B513688BB103300B495C
:1031100020F003001844884202D81060184608BD09
:1031200005F014F90C224FF0FF330260184608BD79
:1031300003490B461160E9E77401002000BC04203C
:10314000805A00200122024B02600B60704700BFD2
:10315000000000200FB410B582B08021094804ACF3
:1031600054F8042B2346019405F02CF9002803DDC4
:103170000146044800F008F802B0BDE8104004B071
:10318000704700BF7C0100204FF0FF30704700BF48
:1031900008B505F071F8054B054A9A60D3F8882008
:1031A00042F47002C3F8882008BD00BF00ED00E0C3
:1031B0000000020805F088B8BFF34F8F0549064BA1
:1031C000CA6802F4E0621343CB60BFF34F8F00BFC5
:1031D000FDE700BF00ED00E00400FA052DE9F04135
:1031E0000446284890461F460D46069EFFF7B2FF4C
:1031F00021682548FFF7AEFF61682448FFF7AAFF62
:10320000A1682348FFF7A6FFE1682248FFF7A2FF65
:1032100021692148FFF79EFF61692048FFF79AFF67
:10322000A1691F48FFF796FFE1691E48FFF792FF6B
:103230001D4C1E48FFF78EFF29461D48FFF78AFFE9
:10324000E16A1C48FFF786FF216B1B48FFF782FFEE
:10325000E16B1A48FFF77EFF2A060ED42B0403D534
:1032600039461748FFF776FF1648FFF773FF3146D8
:103270001548BDE8F041FFF76DBF41461348FFF721
:1032800069FFEBE77C8C02088C8C02089C8C02089E
:10329000AC8C0208BC8C0208CC8C0208DC8C0208C6
:1032A000EC8C0208FC8C020800ED00E00C8D02089A
:1032B000188D0208288D0208388D0208488D0208F2
:1032C000688D0208788D0208808D0208588D0208EA
:1032D000DFF8FCC32DE9F84FDCF80C500024C34B99
:1032E0004FF0010E45F0807ADFF8E8931546DFF8DD
:1032F000E883CCF80CA00E46C3F8B09F40F2DA4742
:103300005C601A68BA4942EA0E02DFF8D093DFF82F
:10331000D0C31A60DFF8CCA3C8F800400C60B54BEE
:10332000B54ADFF8C483B549C8F80040C9F8004081
:10333000CCF80040CAF8004014600C601C60002308
:10334000DFF8A8C3DFF8A893DFF8A8A3AC4ADFF83A
:10335000A883AC49CCF800401360C8F80030C9F825
:103360000030CAF800300B60DFF890C3A64CDFF8DD
:103370009083A64AA649DFF88CB3DFF88C93DFF878
:103380008CA3C2F800E0C8F80030CCF8003023600D
:10339000CBF800300C68C9F80030CAF800309D4AFC
:1033A000DFF86C839C4B0C3252F80C1CDFF864C3C2
:1033B000C8F80040B9421B68DFF85CE3CCF8003085
:1033C0001268CEF8002000F07F8240F6CF3740F23E
:1033D0000F424FF4F86440F2B133CEF80070174654
:1033E0008E49DFF838E3C8F80040CCF80030C1F867
:1033F00000E007EE902ADFED8A6A8A4AF8EEE77A63
:1034000086EEA77A82ED007AB7F5487F0ADD1B1BAE
:10341000DFED856A07EE903AF8EEE77A86EEA77A56
:1034200081ED007A0023814A4FF07C51804C13607B
:103430004FF07F5C7F4A4FF07D5ADFF8E4E24FF0B7
:10344000514813607C4A23604FF0804413607B4AEC
:103450007B4F13607B4ADFF8CC9211607A49C2F847
:103460001CE04FF07E5E51607849C2F824C04FF4F2
:10347000001C91607649D7620027D16075491463BA
:103480001C4651617449C2F818E011627349C2F8D0
:1034900010A0916241F28831714A1760714A176039
:1034A000714A1760714A1760714A1760714A176054
:1034B000714A1760714A1760714A1760714AC2F801
:1034C00000C00CF1FF3C704AC2F800C06F4ADFF840
:1034D00058C2C2F800C06E4ADFF850C2C2F800C03D
:1034E0004FF0010C6B4A11604A466B490B606B4907
:1034F0000B606B490B606B490B606B490B606B4950
:103500000F606B490F606B490B606B490B606B4937
:10351000C1F818C0C1F844C0C1F870C0C1F89CC05F
:10352000C1F82CC0C1F800C0DFF804C24F61CB6005
:10353000CB610F648B638B64CF664B664B678B6785
:103540008F65C1F89870C1F89030C1F8A030C1F80B
:10355000A4304346C1F88470C1F84CE0C1F820E0C3
:10356000CCF800E0C1F8A880C1F85080C1F87C9088
:10357000DFF8C081C1F824905149DFF8BCC1C1F81F
:103580000080DFF8B881CCF800E0C1F80480DFF8F3
:10359000B081DFF8B0C1C1F80880DFF8AC81CCF8A9
:1035A00000E04FF0504EDFF8A4C1C1F80C8045494F
:1035B000DFF89C81C1F800E0CCF8007047F6FF7C92
:1035C0000827C8F800E04049DFF888E10F60CEF82E
:1035D00000C043F8044B13F13A5F42F8044BF8D1B2
:1035E0004FF0504300243949B6E000BF001000E01E
:1035F000482B0020942A0020C44D0020541B00209A
:10360000C04D002088380020A82A00205C2B002014
:103610000480010800800108088001087002002071
:10362000000080C5982A0020000080455C380020FA
:10363000FC37002084380020A02A00209438002085
:103640000000E03F043800202549123F9A99193FB5
:10365000ABAA2A3FCDCC4C3FABAAAA3F5555D53F8C
:10366000BC4D0020C41A0020542B0020282B002021
:10367000604C0020C42A0020D04D0020740200209D
:10368000502B0020F8370020201B0020F0370020AE
:10369000A03800203C1B0020C02A0020404C002005
:1036A000641B0020442B0020D01A0020A42A0020F4
:1036B000E42A0020D81A0020B02A0020141A002082
:1036C000D42A00209C2A0020704D0020000002D047
:1036D000F0ED00E055CEACC5B82A00205C4C0020CF
:1036E0006438002068380020AC2A00209838002078
:1036F000BC2A0020644C002074380020244D002097
:1037000058380020581B0020704C0020681B0020F7
:1037100040380020601B00201C1B00206F128340DB
:103720000000A03F000080D06F12833A00007B446D
:10373000301B00201992973F703800202DB5DE3ED7
:103740001E50063E383800201C476A3CF4370020E3
:10375000443800204C1B002043F8044B8B424FF0B0
:103760000002F9D1604F4FF0000EDFF800C214469E
:103770003A605E4FCCF800203A60DFF8F4C15C4F4D
:10378000CCF800203A60DFF8ECC15A4FCCF80020AA
:103790003A60DFF8E4C1584FCCF800203A60DFF817
:1037A000DCC1564FCCF80020BA617A613A61FA6008
:1037B0007A60BA627A623A62FA617A643A64FA6367
:1037C000BA633A637A653A65FA64BA643A67FA6644
:1037D000BA667A664A4BFA65C7F8802003F68C41D0
:1037E000FA67BA677A67C7F89C20C7F89820C7F8C5
:1037F0009420C7F89020C7F88820C7F8AC20C7F8F5
:10380000A820C7F8A420C7F8A0203E4ADFF870C15E
:10381000C2F800E03C4F3D4ACCF800E0C7F800E0B9
:10382000C2F800E043F8044B9942FBD1384B002129
:1038300003F6247243F8041B9A42FBD1354B002255
:10384000354943F8042B9942FBD1344B0021344CC9
:1038500043F8041BA3424FF00002F9D14FF0804E11
:10386000304B314943F23907304CC3F800E00C606B
:103870002F4B3049304C1960304B314923600B607D
:103880004FF03E532F4C304923600F602F4B30498F
:10389000304C1960226003F0ABF94FF47A70FCF7FA
:1038A000CDFD10222C493046FFF700F810222846A3
:1038B0002A49FFF761F82A4B00225A611A61DA603F
:1038C0009A605A60BDE8F88F121B2649DFF8B4E011
:1038D000E71AB2F5487FC1F800E03FF78AAD224A07
:1038E000C2F800E090E500BF2C2B002050380020EB
:1038F000284D00203C2B0020744D0020744C0020EB
:10390000642B0020E4380020382B0020501B0020BE
:103910006C1B0020E8380020384C00207802002082
:10392000141A0020C81A00206C4C00202E17D8351D
:1039300054380020136EA635582B0020CDCCCC3D3A
:103940002C1B00207C380020CC2A0020402B00209B
:1039500017B7D138341B0020E82A0020DC1A0020D9
:10396000E04D002070020020982A00204C2B0020FF
:10397000684C0020444C0020C82A0020342B002032
:10398000584C00206F128340084B186800280BDD4C
:10399000074A0021136D526A03EB800043F8041BB1
:1039A000834242F8041BF9D1704700BFF83700206A
:1039B000141A00202DE9F04FB14B0026B14C01251F
:1039C0002DED108BA3B012905E60236811922B44F2
:1039D000AD4A139192682360AC4B2A44AA491B68F4
:1039E0008A60B342AA4A156002DD013BA74A136010
:1039F000A84B1B68002B02DD013BA64A1360A64AB8
:103A00001368002B01DD013B1360A44A1368002BEF
:103A100001DD013B1360A24A1368002B01DD013B6D
:103A20001360A04BF2EE006A9F4A93ED067AD2ED46
:103A3000007ABAEECE7A9D4E5D69DFF800C377EE6C
:103A4000677ADCF80000F0EEE77AF4EEE67AF1EE61
:103A500010FAC8BF82ED007A04283268A5EB020193
:103A600081EAE172A2EBE17241F34184011F01EBB3
:103A700081014FEA410E0EF1080E8D4F96453968CF
:103A800001F1FF31396002DA0029C2F28383894AE9
:103A900010461B92884A016801390160874908680D
:103AA000002841F00F84864E3168012902F0AE8370
:103AB0001068814E012801F01E84002841F0208406
:103AC000804D814928680968012802F04E84002948
:103AD00041F31B847D4842F6E06501680131A9424B
:103AE000016009DD77497A4D0846012100682960A7
:103AF000003018BF01201060764A7749126912F42D
:103B0000806F0A6802D0052A02F0478201327348AA
:103B10000025052A0A6005606F4901DD05220A605B
:103B20006F4D4BF68031226800202C68121B6D4CC3
:103B30008A4220606C4A42F33F821046149201216F
:103B40006A4A06681B981160D0F80080684A05929E
:103B5000684C58682268811A01F58071B1F5007FC0
:103B600004D90246644920600020086007EE902ACC
:103B7000CCF80060614AFAEEEB7A614892ED007A87
:103B80006049FDEEE77A17EE90CA4FEA8C021044C6
:103B90001144D0ED007A91ED00EAF4EE477AF1EEAF
:103BA00010FA09D05848016831B9DFF874B1DBF870
:103BB0000010002902F07683B8F1000F45DD5A6944
:103BC00000219FED527A803A4B4807EE902A01601F
:103BD000F8EEE77A67EE877AFDEEE77A17EE902A3D
:103BE0008A42C2F2D282B2F5805FC2F2A883DFEDD0
:103BF000487A40F6FF7247490968022902F0C182FB
:103C000045480068002802F0EB812E4804464348EE
:103C10002468C0ED007A012C02F0FD83002901DC4C
:103C2000072E12D138490A6822B93D4C2268002A71
:103C300002F0DB823B4A3C491268096802603B485B
:103C40003B4C02603B4A216011609A689FED3A7AD2
:103C5000C83A07EE902AF8EEE77A67EE877AFDEE2B
:103C6000E77A17EE902AB2F5805F82F28781002A08
:103C700082F20A8200210120DFED325A64E000BFA7
:103C8000001000E078580020E04D0020804E002019
:103C9000B82A0020D4550020DC5500205C560020B6
:103CA00074580020984F0020484C00203C1B0020F6
:103CB000704D0020542B0020D04D0020F437002000
:103CC0005C2B0020541B0020C855002074020020EB
:103CD000502B0020001802405C4C0020C4560020ED
:103CE000482B002064380020D44D00209838002054
:103CF000944F0020282B00203C380020C02A0020B0
:103D000008000020E4000020E42A00208988883F81
:103D1000D3E97F40C42A0020C41A0020DC4D0020D3
:103D2000A42A0020641B002070380020404C002092
:103D3000301B002038380020713D8A3FD02A0020F7
:103D40007B698A39000000001A68F7EE007A1FEDDF
:103D5000045AC83A5FED054A07EE102ACD4AB8EE7C
:103D6000C77AD2ED006ACC4A92ED006A27EE057A56
:103D70009FEDCA5A75EEC65AC7FE677AC7FEA47A87
:103D800037EEE67AA5EE856AF4EE647AE7EE056A28
:103D9000F1EE10FA82ED006ABE4AC2ED006A05D16A
:103DA00020B1BF480268022A02F00583F5EE407A8E
:103DB000F1EE10FA42F0E880002942F0E5801A693D
:103DC0009FEDB87AC83A07EE902AF8EEE77A67EEE8
:103DD000877AFDEEE77A17EE900AB0F5805F82F2FF
:103DE000C180002882F2AE81DFEDAF5AAF4A9FED6D
:103DF000B07A109282ED027ADB68AE4FC83B9FED3D
:103E0000A94AD7ED006A07EE903AAB4B75EEE64A49
:103E10009FEDA25AF8EEE77A93ED006A109B37EE19
:103E2000467AA54A67EE847AC3ED015AE4EE856AC4
:103E3000A7EE056AFDEEE77A17EE903AC7ED006A45
:103E4000B3F5805F82ED006A82F27780002B82F208
:103E5000F980FE2299499FED9ADA059BDFF8E88206
:103E60001B68109804930160C8F82C20C8F8002043
:103E7000002B42F05380934B93491B6801EB820265
:103E8000012BD2ED00DA02F090829FED89CA119BDE
:103E9000002B41F3D8810023B6EE006AB0EE4DFA54
:103EA000DFF8A8B20193894BDFF8A4921693884BF0
:103EB000DFED88CA1A93884BDFED78AA0393874B0E
:103EC000DFED871A0293874BDFED87EA0E93874B6E
:103ED000DFED87BA1993874BDFED87FA0793874B9E
:103EE0009FED87BA0893874B0F93874B0D93874BB2
:103EF0000093874B1593874B1793874B1893019B20
:103F000012994FEAC30CDFED856A0A460CF10403EF
:103F100062440993CB1892ED002AD3ED003AB0EE3B
:103F2000C27A7F4BF5EEC03AD3ED007AF1EE10FA8B
:103F30004CBF37EE637A37EE237A37EE677AE7EED7
:103F40002C7AF4EEE67AC3ED007AF1EE10FA09D598
:103F500067EEA77A9FED737A67EE877A22EE272ABB
:103F600063EEA73A0799F7EE007A0F9A91ED004AAF
:103F70001368B4EE674A591EF1EE10FA116001F0B1
:103F80001D820D9B1A68531E0D9A00291360664A04
:103F900092ED005AC1F2CB85169A00261268002BCA
:103FA000C1F27D850025002A41F04982049B002B47
:103FB00001F09F821B9B1B68B3F5617FC1F2998260
:103FC000189B93ED008A089BD3ED006A1A9B76EE4E
:103FD000C86A93ED003A0E9B34EE434A66EE8E6A51
:103FE000196824EE0E4A514B75EE6D4AB0EE6D9A8B
:103FF000DFED4F8A1B68B7EE000ADFED4E9A78EED0
:10400000266A0693A4EEA89A9DED067A33EE043A4A
:10401000494BF8EEC75A9DED045AD3ED007A474B51
:10402000B8EEC55A77EEE57A93ED007AF0EE498A5C
:10403000434B77EEC77AD3ED000A424BA7EEA97A3D
:1040400093ED001A75EE602A134B05EE101AF0EE90
:10405000607AD3ED005AB8EEC55A334BF0EE474ABA
:1040600035EEE19AC3ED008AB0EE407A334B35EE7F
:10407000415AC3ED004AE2EEAA7AA9EE217A089BE2
:10408000A5EE2A1AC3ED006A079B83ED003AB4EE51
:10409000C07A5FE074380020581B00206F12833A0A
:1040A000BC4D0020713D8A3FF404353E4C4C00204D
:1040B00000000000244D002088380020CA20973DD1
:1040C00072F97FBFF4370020C4B90208784D002090
:1040D000301B00200AD7233CA42A0020E42A002019
:1040E0003333333F541B002000003043502B00205B
:1040F000986E923F7038002099AAAA3C641B002059
:10410000CDCCCC3E68380020AC2A0020442B0020C7
:10411000D42A0020C41A0020404C00206F12033A19
:10412000843800200024744A8C3800204038002055
:1041300077BE7F3FCDCC4C3D484C0020BC2A0020B0
:10414000644C0020C04D0020744C0020141A002044
:10415000004E0020DC4BC3ED007ADC4BF1EE10FA90
:1041600083ED001A149B1B6801F18981012B41F337
:104170008681B7EE085A27EE055ADFEDD57AB7EEFD
:10418000007A64EEA74A74EEA47AB0EE644AA1EE17
:10419000674AD04BD3ED007A77EEC77AAEEE277A36
:1041A00083ED007A049B002B41F02781CA4BCB4A58
:1041B0001B68CB48013B126800681A40C64C0128B6
:1041C000C74B226001F0DE85C64B009AD3ED002A72
:1041D000179B66EEA27A1B68C2ED007A0BB167EE00
:1041E000A67A67EE277AC2ED007A002941F0FC80BA
:1041F00023EE277ABC4A82ED007A23B127EE037AB8
:10420000B94B83ED007ADFEDB96AB4EEE67AF1EEF0
:1042100010FA41F17F80F4EEE67AB34BC3ED006A09
:10422000F1EE10FA41F18C80F0EE667A009BC3ED5E
:10423000006AAF4BD3ED006AF5EEC06AF1EE10FAFA
:1042400019DDB1EE007A36EE877AB4EEE77AF1EE58
:1042500010FA04D577EEE67A009BC3ED007AA24B04
:10426000D3ED007AB4EEE77AF1EE10FA03D577EEEB
:10427000E66AC3ED006A059B1B68012B01F0B5835C
:10428000029B039A1B681268012B01F09B83DBF8E9
:104290000030012A01F08383012BF0EE006A01F067
:1042A0006F839BED027A0221DBED017A37EE267AED
:1042B00077EE8C7A8BED027ACBED017ADBF82C204D
:1042C000F0EE006A8B4B012A01F04C8393ED0D7ADE
:1042D0000322D3ED0C7A37EE267A77EE8C7A83EDD3
:1042E0000D7AC3ED0C7A059B1B68012B01F01D8331
:1042F000814B1B68012B01F0C3842C237A48DFED2E
:104300007F5A03FB01B390ED007A0020D3ED016AE0
:10431000186177EE667AF4EEE57AF1EE10FA01F3C1
:1043200044849FED777AF4EEC77AF1EE10FA01F14A
:104330006E85F4EEEA7AF1EE10FA02F3B5829FEDA3
:10434000717AF4EEC77AF1EE10FA02F1AD822C2305
:10435000009877EEA67ADFED695A90ED007A03FBBC
:1043600001B003FB02B30024C0ED017AD3ED016A72
:104370001C6177EE667AF4EEE57AF1EE10FA01F35D
:1043800018849FED5F7AF4EEC77AF1EE10FA01F12E
:104390004285F4EEEA7AF1EE10FA02F395829FED8F
:1043A000597AF4EEC77AF1EE10FA02F18D822C23DD
:1043B00077EEA67A03FB02B3C3ED017A029B1B687A
:1043C000022B01F0EF802C2000FB01B00369002BD1
:1043D00001F0B080D0ED027A34EEA77A3E4BF0EED9
:1043E000004A2C20B7EE081A1B6887FE247A00FBCF
:1043F00001B11C460A93394B07EE904A4C6A1B6880
:10440000B8EEE73AD1ED082ADFED3F5A77EE034ADE
:10441000BDEEE47AC1ED034A17EE100AB8EEC77A92
:10442000184034EEC77A451E861C48611D401E4068
:1044300081ED077A411C04EB850527EE060A04EBA3
:1044400086061940D5ED007A04EB8000D6ED004ACF
:1044500004EB8101D0ED006A77EEA47AD1ED000A79
:1044600077EEE64A76EEA77A74EEE04A64EE804A8A
:10447000E7EEC64AE0EE814AE7EE246A16EE901AAD
:1044800021F00041B1F1FF4F88BFF0EE656A66EEA2
:10449000A26A03990968022901F06B812C2000FBB4
:1044A00002B00169002901F03F80D0ED024A34EEEC
:1044B000247AF0EE007A2C21F7EE082A9FED124ABA
:1044C00001FB02B222E000BF644C0020C04D00207E
:1044D000CDCCCC3D6C380020604C0020201B00204F
:1044E000CC4D0020C02A0020D01A00209CE6F441C8
:1044F0008C380020141A0020F4370020000080427D
:10450000000080C26F1283BA0000C842DBF850106E
:10451000C7FE277A77EE835A0691506AFDEEE57A58
:10452000C2ED035A92ED083A17EE901AF8EEE77AC8
:10453000194075EEE77A4D1E8C1C51611D401C40E0
:10454000C2ED077A4A1C00EB850567EE860A00EB90
:1045500084041340D5ED004A00EB810194ED007A0C
:1045600000EB830374EE874A91ED007A93ED001A15
:1045700074EEC75A77EE244A75EEC15A65EEA05A1A
:10458000E4EEC65AE1EE225AA7EEA57A17EE103AEB
:1045900023F00043B3F1FF4F88BFB0EE447A27EE1B
:1045A000037A16EE903A23F00043B3F1FF4F17EE73
:1045B000103A23F0004300F20487F2EE047AB3F1DC
:1045C000FF4FF4EEE76A01F20283F1EE10FA07DC26
:1045D000FAEE047AF4EEE76AF1EE10FA41F10A839A
:1045E000F2EE046AFAEE047AB4EEE67AF1EE10FA2C
:1045F000B4EEE77ACCBF01230023F1EE10FA48BFF6
:1046000043F00103E84AD2ED006AE74AC2ED006ACE
:1046100013B1E64B93ED007A199BE44A1B6882EDD7
:10462000007A002B40F0B486E14BF0EE634AF0EEE6
:10463000425AD3ED007AE7EE274AE7EEA65AF0EEAB
:10464000647ADC4BDFEDDC4A93ED003AB4EEE43AF9
:10465000F1EE10FA11DD9FEDD94A73EE644AD9EDFF
:10466000182A34EE434A99ED193A65EE845A67EEFA
:10467000847AE2EEA45AE4EE837AD14B36EEE54A30
:10468000F2EE044A93ED001AE4EE015AF4EEE45A15
:10469000F1EE10FA06DCFAEE044AF4EEE45AF1EE1A
:1046A00010FA02D5C74BD3ED005AC74BC64A93ED5B
:1046B000004AC64B35EEC44AD3ED004AC14BEFEE7B
:1046C000044AC3ED005AC14BC3ED005A14EE903AB0
:1046D000C2ED004A23F00043B3F1FF4F05D99FED2F
:1046E000BC4AF0EE444A82ED004A15EE903A23F0BF
:1046F0000043B3F1FF4F02D90023B44A136098ED91
:10470000004A75EEE45AD8ED014AB8EEC44A65EEA7
:10471000865A34EE644AE4EE2A4AF4EEEE4AC8EDD4
:10472000014AF1EE10FA40F359869FEDAA4A9FED37
:10473000AA0A34EEC44A24EE000ABDEEE44A98ED1B
:104740000A3AA64A64EEAF4ADFEDAA8AF1EE002AE1
:1047500014EE103A98ED064AD8ED020A33EE049AA8
:1047600002EB830398ED078AF4EEE24A29EE289AD9
:10477000D3ED008AF1EE10FA78EEE08AE0EE095A05
:1047800098ED030A98ED089AE8EEAC0AD8ED048A91
:1047900035EEC88AC8ED035A25EEABAAC8ED020A69
:1047A000A0EE880A98ED098A8DED1DAAF0EE409AD8
:1047B00098ED050A75EEA95AC8ED079A65EE865A76
:1047C00035EEC99AC8ED045AE0EE898A9FED8A9ABF
:1047D00025EE899A8DED1E9A75EEA85AC8ED088AC5
:1047E00065EE865A35EEC88AC8ED055A65EEAB8A85
:1047F000A0EE880ACDED1F8A75EE805A88ED090A71
:1048000065EE865A35EEC30A9FED7C3AC8ED065A2E
:1048100025EE833AA0EE804A8DED203A75EE845A5B
:1048200088ED0A4A9FED764A65EE845ACDED215A0D
:1048300080F2C085FDEEE45A22AA15EE903AB8EE59
:10484000E54A02EB830274EEC44A52ED045A12EDBB
:10485000053A75EEC35A624B93ED004AA5EEA43AB1
:10486000F0EEC35AB4EEE54AF1EE10FA40F18A8553
:1048700075EEC45ADFED5B4AA5EEA44A159A64EEC4
:10488000055AF1EE044A564B92ED038A77EE678A99
:1048900092ED020AC5FE865AB1EE488AD2ED012A8F
:1048A000F0EE400AC5FEE45AF1EE622AD2ED004A6B
:1048B000E1EE287A83ED004AE8EE250AF0EE628AFE
:1048C000B2EE044AF4EEC47AE0EEA58AF1EE10FAF4
:1048D000F0EE680AF0EE648AE0EEA58A28EE833AEC
:1048E00006DCFAEE045AF4EEE57AF1EE10FA02D59F
:1048F0003D4BD3ED007A3D4B3C4A93ED004A3C4B97
:1049000037EEC44AD3ED005A374BEFEE045AC3EDED
:10491000007A374BC3ED007A15EE903AC2ED005A9B
:1049200023F00043B3F1FF4F05D99FED294AF0EE84
:10493000445A82ED004A17EE903A23F00043B3F157
:10494000FF4F02D900232A4A136098ED0B4A77EEF5
:10495000E57AD8ED0C5AB8EEC44A67EE867A34EEA2
:10496000654AE4EE2A5AF4EEEE5AC8ED0C5AF1EE1E
:1049700010FA40F3FB849FED174ADFED179A35EEEE
:10498000C44A64EE299ABDEEE54AD8ED110AD8ED85
:10499000158A65EEAF5A114AB1EE00DA38EEA0AAD8
:1049A00014EE103A2EE000BF681B0020583800209B
:1049B000581B002088380020AE47613EF6289C3FF7
:1049C000644C00205C1B0020284D00203C2B002064
:1049D000000000000000D5436F12033BC4B502087D
:1049E0005C3800206666663FD41A0020444C0020E4
:1049F000C82A00209A99993E3789813FBC74A33F09
:104A0000713D2A3F1FED059A02EB830398ED0D4A95
:104A10002AEE09AAD8ED128A93ED009AF4EECD5A47
:104A2000E9EE8A7A98ED0EAA39EE449AD8ED0F9AFB
:104A3000F1EE10FAA9EE2C4A37EEE89AC8ED0E7A9C
:104A400067EEAB8AA4EE09AACDED1D8AD8ED138AD4
:104A500098ED109A88ED0D4A77EE8A7A88ED12AAC1
:104A600067EE867A37EEE8AA5FED1D8AC8ED0F7A09
:104A7000E4EE0A9A27EEA8AAD8ED148A8DED1EAAB4
:104A800077EEA97AC8ED139A67EE867A77EEE89A00
:104A9000C8ED107A27EEABAAD8ED158AA4EE299AB4
:104AA0008DED1FAA77EE897A88ED149A1FED2D9A65
:104AB00067EE867A77EEE88AC8ED117A27EE899A52
:104AC000E4EE280A1FED324A8DED209A77EEA07AA7
:104AD000C8ED150A67EE847ACDED217A80F2428422
:104AE000FDEEE57A22AA17EE903AB8EEE74A02EB1D
:104AF000830275EEC45A52ED047A12ED059A77EEF0
:104B0000C97AE64B93ED004AA7EEA59AF0EEC95A92
:104B1000B4EEE54AF1EE10FA40F12E8475EEC45A77
:104B2000DFEDDF7AA5EEA74AF0EE447A27EE855A4C
:104B3000059BF1EE045AD94A1B6885FE065AC2ED60
:104B4000007A85FE655AA8EE050A0493E0EE052A70
:104B5000E2EE854A64EE894ACBB9D24BB0EE435AB5
:104B6000D3ED005AD04B75EEC35AD3ED007ACD4B3E
:104B7000A1EE255A77EEE47AF0EE455AB0EE645A8B
:104B8000C3ED005AA1EE275AC74B83ED005AC74B1D
:104B900033EE663AC64A41F29B001B6874EEC74A80
:104BA000D2F800A0E1EE036A013BC24ABF49A1EE80
:104BB000247A03EA0A03D2F800E0DFEDBF2AB5EE5B
:104BC000009A03F22E7203F6C1040B6003F666210D
:104BD00002EA0A0204EA0A0401EA0A0118440EEB96
:104BE000820266EEA26A0EEB840400EA0A0092EDED
:104BF000003A03F638420EEB810127EE227A89ED66
:104C0000003A02EA0A0294ED004A03F668640EEBE9
:104C10008202DFEDAA9A89ED014A04EA0A0491EDC5
:104C2000005A41F2FD210EEB840433EE04DA89EDE3
:104C3000025A1944D2ED007A41F2A3520EEB8000E1
:104C400001EA0A01C9ED037A1A44D4ED005A33EEA1
:104C5000443A0EEB810102EA0A02C9ED045A75EEEC
:104C6000274A90ED004A0EEB820275EE677ADFED7F
:104C7000948A89ED054A35EE84AAD1ED002A35EEF5
:104C8000C44A3DEE241A9FED8F0AC9ED062A0AEAAE
:104C90000301D2ED005A03F22F72C9ED0A4A7DEEEC
:104CA000644A32EEA55AC9ED075AC9ED0B7A72EE85
:104CB000E55A73EE272A89ED093A3AEE058A89ED1D
:104CC0000CAA73EE677A89ED0D4A89ED0E5A3AEE19
:104CD000455A31EE083AC9ED0F5A89ED08DA34EE3B
:104CE00025DA89ED101A31EE481AC9ED114A74EE31
:104CF000655AC9ED122A34EE854AC9ED137A0EEBD6
:104D0000810189ED148A02EA0A0297ED008A89ED91
:104D1000155A34EEC55A23EE088A6B4872EE8D4A56
:104D200089ED183A90ED003A72EECD2AA6EE898A06
:104D30006648C9ED194A0EEB820289ED1C1A37EE5E
:104D4000A51A89ED1A4A37EEE54AC9ED175A109DA2
:104D500088FE698A88FE288A28EE08AAD0ED005AC3
:104D60005B48DFED5C0A60EE4A4AD0ED007A89EDDF
:104D70001E5A95ED005AE5EEE07AA4EE888A524E6E
:104D800089ED1F4A89ED16DAC9ED1D2A89ED1B1A36
:104D9000514833EE483A514CDFED515AA3EE058AA3
:104DA000E8EE207A86ED008A494E86ED008A474E6D
:104DB00038EE678AC6ED007A28EE068A81ED008A11
:104DC000D7ED004AD9ED197A464967EEA47AD5EDB8
:104DD000004A91ED005A4449E7EE097A91ED003A14
:104DE000424991ED004A3F49C7FEE99AC9FEA88AA7
:104DF00068EEA87AA3EE604A20EE670AE0EE288A01
:104E0000F0EE447A35EE685AE5EE248AE8EEA07AB0
:104E1000C1ED008A3549C1ED008A334978EEE78A51
:104E2000C1ED007A68EE868AC2ED008A94ED005AE0
:104E3000D0ED007A75EE277AF4EEE57AC0ED007ACF
:104E4000F1EE10FA06DCDFED2A5AF4EEE57AF1EE27
:104E500010FA09D5B1EE455AF0EE007A84ED005A09
:104E6000E5EE275AC0ED005A224A9FED1D5AD2EDB9
:104E7000005A214A1F49D2ED007A75EEA77AF4EE66
:104E8000C57AC2ED007AF1EE10FA37DC9FED185AC0
:104E9000F4EEC57AF1EE10FA3AD52FE0FC37002097
:104EA0006666663FB02A0020D81A0020902A0020AB
:104EB0004C1B00209C2A00206666263FABAA2A3F96
:104EC000ABAA2ABFABAAAA3E744D00202C2B00200F
:104ED0005038002077547EBF2C1B00206C4C0020E3
:104EE0003333B33E342B00204C2B0020684C002081
:104EF000CDCC4C3D54380020582B0020F1EE655AA3
:104F0000F0EE007AC1ED005AA5EEA75A82ED005AE4
:104F1000D94A03F6C200D9ED1A7A146800EA0A00E9
:104F2000D7ED005AD54A0EEB800067EEA55A07EE82
:104F3000904A9FEDD35AF8EEE77AC0ED005AD2EDD1
:104F4000004AE4EE857ABDEEE75A15EE105AF8EE07
:104F5000C54AB5F5727F05F1010277EEE44A40F3E8
:104F6000FE816FF472716918B2F5727FC24E9FEDC7
:104F7000C53AC8BFA5F57272C34DB4F5727F05EB93
:104F8000810105EB820204F10105D1ED007A08BF31
:104F9000002592ED004A03F66722BB4934EE674ACA
:104FA000356001EB8404B94902EA0A0240F2223575
:104FB000E4EE847A09680EEB820205EE101AB8EE70
:104FC000C55AE7EEA15AE5EEE17AC4ED005AC0ED0C
:104FD000007AD7ED004AD9ED1B7AAD4867EEA44AB6
:104FE000C2ED004AD0ED007AA7EE835AB7EE083A38
:104FF000FDEEC55A15EE906AB8EEE54AFFEE005A8E
:10500000AE4206F1010040F2223535EE444ACCBFF3
:10501000A6F223343446A8429E4DB7EE005AC8BFCC
:10502000A6F2223005EB840403F6394605EB800036
:10503000D4ED007A4C1C05EB8101D0ED002A40F242
:105040002330924D06EA0A0672EEE72A844214BF24
:10505000204600200A9C0EEB8606286003F6696550
:10506000E4EE227A06980B91A40001460998069472
:1050700005EA0A052144139C0EEB8505E7EEA14ADB
:105080000C91214661440A910146E4EEE17A0198CF
:105090002144814C013009910B992468C1ED004AEB
:1050A0007E4901900968C2ED007AD7ED004AD9ED3A
:1050B0001C7A7B4867EEA47A7A4A00EB840C40F2B3
:1050C000D440013402EB8102C6ED007A0131DCEDFF
:1050D000007A844208BF0024D9ED1D2A41F29C00C9
:1050E00067EE8B4A97ED004A6B4E1844E2EE844A15
:1050F000346000EA0A0041F2FE240EEB80001C44FA
:1051000040F2E75304EA0A04E4EECB7ACCED004A1D
:10511000994208BF00210EEB8404DBF82430C5ED72
:10512000007AD7ED004AD9ED1E7A5C4D67EEA47A7D
:10513000C0ED007AD2ED007AD9ED1F2A67EE8B4AD6
:1051400097ED004A29605849E2EE844AE4EECB7AB2
:10515000C2ED004AC4ED007AD9ED1A2A99ED184A39
:10516000D9ED197A34EE224AD9ED1B4AD9ED1C2A21
:10517000069C77EEA44A34EE224A0A68D9ED1D7ADD
:10518000234499ED1E1A494974EEA77AD9ED1F2AD6
:1051900074EE014A1A600C9A77EEA27A0B6874EEEC
:1051A000E64A136077EEC77A414AD2ED002A414AB7
:1051B000E4EEA26AA2EEA77A92ED004A0A9B74EE90
:1051C000042A019824EE044A099CC6FEC56AC6FE5C
:1051D000A56A66EEA64A87FE457A87FE257A67EEBF
:1051E000077A64EE864A67EE867A66EEE44A67EEF0
:1051F000677AE6EE834AE7EE037AB0EE637AF0EE82
:10520000646AF0EE424AA7EEA27A32EE262AE6EE71
:10521000A24A73EEA73AF0EE477AF0EE646AE3EE44
:10522000C47AE2EE446A86FEC57A87FE257A83ED6B
:10523000007A87FEC55A119BC5FE255AC4ED005A57
:1052400083427EF45CAE1C4B00211C48DB691C4A87
:105250000160C3EBC31352681749134416484968E9
:10526000DB0902608A42C36100D9426023B0BDEC11
:10527000108BBDE8F08F00BF382B00202C1B0020C6
:105280000040724400C048446C1B0020501B0020AA
:10529000582B0020642B0020E4380020584C0020BC
:1052A000E838002078020020B02A0020D81A002018
:1052B0008838002074380020E04D0020B82A0020F3
:1052C000001000E001287EF4F3AB9D4D2968002911
:1052D0007EF4EEAB9B4E2860316801294FF080418F
:1052E00001F0D4813166C6F88C1000F09DBF4FF0FC
:1052F000080EFEF7C2BB944D2968002900F09C8778
:105300009249096800293EF7E5AB914A00211160F6
:10531000FEF7F2BBF4EEE67AF1EE10FA40F14D84BE
:10532000DFED8C7A009BB4EEE77AC3ED006AF0EE15
:10533000667AF1EE10FA7EF77CAF874B874A1360EE
:105340009FED847AF4EEC77AF1EE10FA7EF771AF32
:10535000009BF0EE477A83ED007AFEF76ABF15EE08
:10536000101A01E6DFED7E5AFFF7C9BBDFED7D9A2B
:1053700065EEA99AFFF707BBDFED7B7A64EE277A2B
:10538000FFF7D4BBDFED785A24EE254AFFF776BA53
:105390000E9B1B68012B754BD3ED007A00F0E68461
:1053A00067EE275A72EE234A67EEA67AE4EE865A33
:1053B000FFF747B9DFED6A4AFFF74BBA0B46FEF736
:1053C000E3BDB3F1FF4FDFED6A6A40F21384694B2E
:1053D0009FED677AC3ED006AFFF71EB99FED610A82
:1053E00024EE800AFFF7A9B963EE226A5B4A26EE33
:1053F000877A82ED007AFEF700BF5F485F4AD0ED02
:10540000002AD2ED007A5E4B72EE8C2A77EE8C7A0F
:105410005B4C1B68C0ED002AC2ED007A002B7EF4C5
:10542000D3AE4FF0000E0123C2F800E0039AC0F89B
:1054300000E01360029A23601360FEF7C5BE039B71
:105440001A68012A00F0A684089B189A93ED008A36
:10545000029B82ED008A1B68012B0E9B196800F0ED
:10546000ED84B0EE443A1A9B83ED004ADFED406ACA
:105470000022444BB0EE664A1A60FEF7B4BD002B22
:1054800041F0F781F5EEC04ADFED3F7AF1EE10FA18
:105490004CBF3E4B3E4B93ED007AE4EE877AFDEE37
:1054A000E77A17EE902AB2F5006FC0F2A08343F2BC
:1054B000FF74384801239FED385AA242A8BF224604
:1054C000C2F30A04D21200EB840003FA02F290ED58
:1054D000007A07EE902A27EE057AF8EEE77A27EEB3
:1054E000877A9FED234AB7EE085AF0EE444AFEF75A
:1054F00050BE2A4A2A4B92ED008A089A93ED003A50
:10550000189BD2ED006A34EE434A83ED008A1A9B61
:1055100076EEC86A24EE0E4A83ED003A0E9B66EEE4
:105520008E6A1968FEF75FBDD0ED014A34EE247A29
:10553000FEF7BFBFD0ED017A34EEA77AFEF74EBF7B
:105540005C2B0020141A0020541B0020C85500209A
:10555000740200209CE6F4499CE6F449D01A00202D
:1055600058FF7F3F8C2E3ABB72F97F3F581B0020BB
:1055700000000000681B0020A82A0020704C0020BA
:10558000CC4D00206438002000000046700200204E
:10559000982A0020C48D02080000803DDC4D0020C8
:1055A00038380020DBF81030E849002B00F0D983B0
:1055B000D1ED027A74EEA77AE54BB0EE007ADBF813
:1055C0002400B7EE081A1B68C7FE877ADFEDE12AD0
:1055D00019460A93E04B06EE901ADBED085A1B6859
:1055E000B8EEE63AD94C77EE837ABDEEE77ACBEDAA
:1055F000037A17EE101AB8EEC77A194037EEC70AC9
:105600004E1E8D1CCBF814101E401D408BED070A5A
:1056100020EE068A00EB850500EB8606D5ED007AC4
:105620004D1C96ED007A00EB81011D4037EE277A84
:10563000D1ED006A00EB850577EE667AD5ED000ABC
:1056400036EE877A77EEE07A67EE887AE7EE467A8A
:10565000E0EE817AE0EE276A16EE901A21F0004122
:10566000B1F1FF4FDBF8681088BFF0EE626A65EEBB
:10567000A66A002900F07083D4ED187A34EEA77A78
:10568000F0EE007ADBF87C00F7EE082A0024DFED6C
:10569000B14AC7FE277A77EE837A9BED1E8ABDEE6C
:1056A000E77ACBED197A17EE101AB8EEC77A1940DF
:1056B00037EEC71A4E1E8D1CCBF86C101E401D40D5
:1056C0008BED1D1A61EE068A00EB850500EB860660
:1056D000D5ED007A4D1C96ED007A00EB81011D405E
:1056E00037EE277AD1ED000A00EB8505029977EEB7
:1056F000607A95ED000A30EE877A0C6077EEC07A1A
:1057000067EEA87AE7EE467AE0EE227AE1EE270A23
:1057100010EE901AF0EE607A21F00041B1F1FF4FE7
:10572000DBF8001088BFF0EE647A01298B49E8EEBF
:10573000276AD1ED007A4FF000010CBF75EEA75A31
:1057400075EEE75AF5EEC05AF1EE10FA00F1DC837F
:10575000F7EE007AF4EEE75AF1EE10FA41F38D809D
:10576000CBF878100399CBED087A096802297EF40A
:1057700095AEDBF83C207549002A00F0E882D1EDB7
:105780000D7A74EE277AB0EE007ADBF85020B7EE8F
:10579000081ADFED702A1646DBED134AC7FE877A3A
:1057A00077EE837ADBF89410684DBDEEE77ACBEDA7
:1057B0000E7A069617EE102AB8EEC77A1A4037EE20
:1057C000C70A541E901CCBF840201C4018408BED9B
:1057D000120A20EE068A06EB800006EB8404D0ED68
:1057E000005A501C94ED007A06EB8202184077EEC6
:1057F000255A92ED007A06EB800075EEC77AD0ED5F
:10580000000A77EE255A77EEE07A67EE887AE5EEC1
:10581000C67AE0EE817AA0EE277A17EE102A22F0FF
:105820000042B2F1FF4F88BFB0EE627A24EE877A71
:10583000002900F08782D5ED235A34EE254AF0EE98
:10584000005ADBF8A810F7EE082A00269FED411A4F
:10585000C4FE255A75EE835ADBF82C009BED290A0D
:10586000FDEEE57ACBED245A17EE902AF8EEE77AB2
:105870001A4075EEE75A551E941CCBF898201D402F
:105880001C40CBED285A25EE868A01EB840401EBFF
:105890008505D4ED007A541C95ED004A01EB820297
:1058A000234034EE274A92ED003A01EB830374EE75
:1058B000437AD3ED000A33EE044A039B77EEE07A95
:1058C0001E6067EE887AE4EE467AE0EEA27AA5EEF4
:1058D000A73A13EE103AF0EE437A23F00043B3F107
:1058E000FF4F1E4B88BFF0EE417A0128A0EE277AC9
:1058F000D3ED007A4FF000030CBF74EEA74A74EEAC
:10590000E74AF5EEC04AF1EE10FA00F1F582F7EE43
:10591000007AF4EEE74AF1EE10FA41F30180CBEDA4
:10592000137ACBF8A430FEF73CBE2C230C48009C25
:1059300006680020256803FB01B403FB02B3666020
:1059400020615D601861FEF739BD00BF141A0020A8
:10595000604C00200000C842201B0020F0370020CF
:10596000D01A002093ED237AD3ED227A37EE267AEF
:1059700077EE8C7A83ED237AC3ED227AFEF7B3BCFF
:105980009BED187A0021DBED177A37EE267A77EE59
:105990008C7A8BED187ACBED177AFEF78FBCDBF89B
:1059A0002C109E48012900F0A18200990C6800216A
:1059B00004630220CBF82C20039ACBF884101060EB
:1059C000FEF76ABCDBF800109448012900F08582DC
:1059D00093490C68002144600220CBF858100299CA
:1059E000CBF800300860FEF754BC039A65EEA25A6B
:1059F000F2EE002A8B481268022A65EEA25A00F0E5
:105A000071828949009C91ED007AD4ED007A874932
:105A100077EE277AD1ED006A77EEA57AF4EEE67A92
:105A2000F1EE10FA40F1268275EE876A1A4603609D
:105A3000C1ED006A0299DFF80CE20868022800F064
:105A40002E827949764C91ED003AD4ED007A78496E
:105A500073EE277A91ED007A77EEA57AF4EEC77AA5
:105A6000F1EE10FA40F12A8235EE837A0120CEF869
:105A7000000081ED007A022A09D06E4B91ED007A88
:105A80001868029B6C4C6D491B6820600860644973
:105A900081ED007A0099C1ED006AFEF7F5BB604B1D
:105AA0004FF434716648D3ED007A029B75EE277A85
:105AB00001601B680D99FDEEE77A6248C1ED007A3E
:105AC000002B40F08A81012A26D01D465E48BEEE9A
:105AD000007A5E4C03685E4904FB03F35D4CDFED26
